:020000040800F2
:100000000050002021020008270200082B020008EF
:100010009D020008A1020008E9020008000000009B
:100020000000000000000000000000003103000894
:1000300035030008000000003903000829170008F4
:100040004D0300084D0300084D0300084D03000850
:100050004D0300084D0300084D0300084D03000840
:100060004D0300084D0300084D0300084D03000830
:100070004D0300084D0300084D0300084D03000820
:100080004D0300084D0300084D0300084D03000810
:100090004D0300084D0300084D0300084D03000800
:1000A0004D0300084D0300084D0300084D030008F0
:1000B0004D030008DD2900084D0300084D0300082A
:1000C0004D0300084D0300084D0300084D030008D0
:1000D0004D0300084D0300084D0300084D030008C0
:1000E0004D0300084D0300084D0300080000000008
:1000F0000000000000000000000000000000000000
:1001000000000000000000005FF808F100B583B0B7
:1001100000F0AAF9304B314A1360314A1360314B79
:10012000314A32498B4204D21168196004330432D7
:10013000F7E72A4B1A682E4B9A4200D0FEE7284B6D
:100140001A682C4B9A42F9D1234B2B4A13602B4A45
:1001500013602B4B02E000221A600433294A9342B9
:10016000F9D3254B1B6813B9244B1B6803B1FEE779
:1001700000F086F9694601A800F022F9224C234BD1
:10018000E41AA4100025AC4214DC214C214BE41AE3
:10019000A4100025AC4213DC0099019802F07EFC0B
:1001A00005461D4C1D4BE41AA410002C0EDC2846FD
:1001B00000F0E2F8154B53F8253098470135E2E797
:1001C000144B53F8253098470135E3E7013C134BB6
:1001D00053F824309847E8E7BABADECA0000002096
:1001E000FC00002000000020485D00080001002005
:1001F000785634123254769800010020E401002031
:1002000000010020E80100207803000878030008BE
:1002100078030008780300087803000878030008D2
:1002200008B5FFF773FF00BEFEE71EF0040F0CBF1A
:10023000EFF30880EFF309807146414A10472DE93A
:10024000F04182B004468846124B5E6B9F6B9D6AFC
:100250001B6B13F0020F03D00E4BDB6A002B0CDB81
:100260000D4800F0B5F8CDF800803B4632462946EF
:10027000204600F009F900BEFEE74BF6AB6100F046
:100280007DF90028ECD0034B4FF00042DA6202B057
:10029000BDE8F08100ED00E0545A000800BEFEE722
:1002A0001EF0040F0CBFEFF30880EFF309807146D6
:1002B000244A10472DE9F04182B004468846084B95
:1002C0005E6B9F6B9D6A074800F082F8CDF8008056
:1002D0003B4632462946204600F0D6F800BEFEE7EF
:1002E00000ED00E0645A00081EF0040F0CBFEFF3AD
:1002F0000880EFF309807146134A10472DE9F04159
:1003000082B004468846084B5E6B9F6B9D6A074827
:1003100000F05EF8CDF800803B4632462946204684
:1003200000F0B2F800BEFEE700ED00E0705A0008F1
:1003300000BEFEE700BEFEE700BEFEE7704700001D
:100340003F020008B5020008FD02000800BEFEE7FB
:10035000485D00080000002000010020485D000802
:10036000000000000000000000010020E801002063
:08037000000000000000000085
:10037800FEE7000008B503460C4A12685AB10B4A5A
:100388001068033323F003030344094A934206D851
:10039800064A136008BD054A06491160EFE703F0F5
:1003A80073FB0C2303604FF0FF30F3E704010020D8
:1003B800004C0020E801002001230360014B0B6082
:1003C800704700BF040000200FB400B583B004AB31
:1003D80053F8042B01938021064803F0DFFB002823
:1003E80003DD0146034800F037F803B05DF804EB7D
:1003F80004B070470C0100202DE9F04385B0044695
:100408000F4643560BB10E461EE0042528462146EA
:10041800ABBE0446384605B0BDE8F08314F9011BAD
:1004280004AA1A4402F8101C0133AB42F6D304AAFA
:100438001344002203F8102C4FF00408E946404604
:100448004946ABBE8046761B002EE3D03546102EBB
:1004580028BF10250023E8E708B5FFF7CDFF08BD42
:1004680008B500F0FDF8024A024B9A6008BD00BFCB
:100478000000000800ED00E008B500F019F908BD1B
:10048800F8B504460D4617461E462748FFF79CFF59
:1004980021682648FFF798FF61682548FFF794FF11
:1004A800A1682448FFF790FFE1682348FFF78CFF15
:1004B80021692248FFF788FF61692148FFF784FF17
:1004C800A1692048FFF780FFE1691F48FFF77CFF1B
:1004D8001E48FFF779FF29461D48FFF775FF1D4C99
:1004E800E16A1D48FFF770FF216B1C48FFF76CFF9E
:1004F800E16B1B48FFF768FF15F0800F0AD115F470
:10050800004F0CD11748FFF75FFF06991648FFF711
:100518005BFFF8BD39461548FFF756FFEFE7314650
:100528001348FFF751FFEDE738590008485900080C
:10053800585900086859000878590008885900086F
:1005480098590008A8590008B8590008C85900085F
:10055800D459000800ED00E0E4590008F4590008F7
:10056800045A0008345A00083C5A0008145A000873
:10057800245A000883691A888A4201D000207047EB
:100588000268033A012A03D80233836101207047C5
:100598000020704782B00023019300932C4A13680F
:1005A80043F4803313602A4B1B6803F40033009331
:1005B800019B01330193009B1BB9019BB3F5A06F0D
:1005C800F1D1234B1B6813F4003F06D0012300939D
:1005D800009B012B04D002B0704700230093F7E77B
:1005E8001C4B1A6842F010021A601A6822F00302C3
:1005F8001A601A6842F002021A60A3F580535A681A
:100608005A605A685A605A6842F480625A605A6856
:1006180022F47C125A605A6842F4E8125A601A6846
:1006280042F080721A600A4B1B6813F0007FFAD000
:10063800074B5A6822F003025A605A6842F00202D5
:100648005A60034B5B6803F00C03082BF9D1C2E72F
:10065800001002400020024008B5FFF79BFF08BDCC
:1006680008B5104B1A6842F001021A6059680E4A20
:100678000A405A601A6822F0847222F480321A60A2
:100688001A6822F480221A605A6822F4FE025A601C
:100698004FF41F029A60FFF7DFFF044B4FF0006230
:1006A8009A6008BD001002400000FFF800ED00E06D
:1006B8001F4B5B6803F00C03042B15D0082B17D0D5
:1006C8001BB11C4B1C4A1A6002E01A4B1A4A1A60EA
:1006D800174B5B68C3F30313184AD35CDAB21549A6
:1006E8000B68D3400B607047124B134A1A60EFE750
:1006F8000F4A53685268C3F38343023312F4803FAE
:100708000AD00B4A526812F4003F0BD00C4A02FB85
:1007180003F3084A1360DBE7094A02FB03F3054ABF
:100728001360D5E7044A02FB03F3024A1360CFE7DC
:10073800001002401C00002000127A000C0000206B
:1007480000093D00134B002119601A6822F48072D9
:100758001A60043319601A6822F400621A601A6871
:1007680042F002021A600C4A1160116811601C32D2
:10077800116811600832116811601A6842F00102AC
:100788001A601A6842F008021A601A6842F00402F5
:100798001A6070470424014010240140024A13687B
:1007A80043F001031360704708240140014B1868A7
:1007B800704700BF4C24014008B50B2202210020DD
:1007C80000F018FA02F030F908BD00002DE9F047F2
:1007D80086B0002483E0DFF820814FEA840A0AEB20
:1007E8000402930008EB030518F80390686803F007
:1007F80007F987B23D49E86802F03CFF03F000F9C9
:1008080086B23B49A86802F035FF03F0F9F885B2D3
:10081800A2444FEA8A039844D8F8100003F0F0F88D
:1008280080B223238DF8043043238DF8053009F175
:1008380030098DF8069054238DF807302D4BA3FB13
:100848000712D20802F130018DF8081002EB82027B
:1008580051007F1A30378DF8097041228DF80A202F
:10086800A3FB0612D20802F130018DF80B1002EB3F
:1008780082025100761A30368DF80C6056228DF8B7
:100888000D20A3FB0512D20802F130018DF80E10DD
:1008980002EB820251006D1A30358DF80F50532249
:1008A8008DF81020A3FB0023DB0803F130028DF83C
:1008B800112003EB83035A00801A30308DF81200A0
:1008C80024238DF8133000238DF8143001A802F08A
:1008D800BFF843F6982002F0D5F80134E4B2052CAD
:1008E8007FF679AF06B0BDE8F08700BF0000C842C8
:1008F80000002041CDCCCCCC2000002008B502223D
:100908000A21012000F076F902220B21012000F0D3
:1009180071F902220C21012000F06CF900220A2151
:10092800012000F0DBF900220B21012000F0D6F9AC
:1009380000220C21012000F0D1F908BD2DE9F04179
:10094800374B1C682146374B186803F045F868B1E7
:10095800344B5968204603F035F860B1314B99683B
:10096800204603F02FF840B9002200E000222E4B69
:100978001A70002413E00022F9E70122F7E72B4957
:10098800284602F06FFD2A4903F030F8F0B1294BF0
:1009980000221A55284B01221A550134E4B2022CC0
:1009A80037D826461F4B53F824502049284602F0D2
:1009B80057FD0746214902F0FBFF0028DFD01D4BF9
:1009C80001221A551C4B00221A55E6E7144BD3F89E
:1009D80000804146384602F0EBFF28B10123154A52
:1009E8001355154A1355D8E74146284602F0F4FF37
:1009F80048B10D4B1B7833B90E4B00221A550E4BDC
:100A080001221A55C9E701230A4A93550A4A935500
:100A1800C3E7054B00221A7000F044F8BDE8F081E6
:100A2800A4010020A80100208C0100200000A040A3
:100A38000000B442C4010020C00100200000A04111
:100A480008B5002306E000221449CA541449CA54C0
:100A58000133DBB2022BF6D900F0F0FD02220121AE
:100A6800002000F0C7F802220C21002000F0C2F894
:100A780002220B21002000F0BDF8002201211046BF
:100A880000F02CF900220C21104600F027F9002272
:100A98000B21104600F022F908BD00BFC401002058
:100AA800C001002000B583B0002307E00E4AD15CE6
:100AB80002AA1A4402F8081C0133DBB2022BF5D94A
:100AC800002308E0DA1C0949C95C02A8024402F8BC
:100AD800081C0133DBB2022BF4D9684600F0C1FDD3
:100AE80003B05DF804FB00BFC4010020C001002072
:100AF8002DE9F843002401E00134E4B2052C57D86D
:100B0800254604EB84039A00354B1344986802F099
:100B180061F92BA3D3E9002302F044FC30B104EBC4
:100B280084039A002E4B13442E4A9A60AB002B4440
:100B38009A002B4E1644B06802F04CF9804689465C
:100B4800F06802F047F920A3D3E9002302F09AF9EC
:100B580002460B464046494601F0DEFF1CA3D3E996
:100B6800002302F08FF91CA3D3E9002301F0D2FF80
:100B780002F022FC074630611B4E0146306802F045
:100B880071FC306014F0010FB6D0013D05EB85050E
:100B9800AA00134B13443946186902F063FC650830
:100BA8004FF07C5102F066FD104B43F82500A3E797
:100BB8000D4C0F49206802F011FE2060BDE8F88353
:100BC800A4703D0AD7A31040CDCCCCCCCCCCF03F00
:100BD8009A99999999896040CDCCCCCCCC2C7C4001
:100BE80020000020B81E8540A4010020A801002094
:100BF8000000C04010B4012824D018B1022841D008
:100C080010BC7047072910D90F29F9D8A1F1080499
:100C1800E4B2A4000F23A3402A48016821EA030391
:100C280002FA04F119430160EAE789000F2303FA85
:100C380001F0254C236823EA000302FA01F1194365
:100C48002160DDE7072910D90F29D9D8A1F10800BB
:100C5800C0B280000F2383401C4C216821EA0303A3
:100C680002FA00F119432160CAE789000F2303FA49
:100C780001F0174C236823EA000302FA01F1194333
:100C88002160BDE7072910D90F29B9D8A1F10803B8
:100C9800DBB29B000F2098400E4C216821EA00002F
:100CA80002FA03F101432160AAE789000F2303FA3E
:100CB80001F0094C236823EA000302FA01F1194301
:100CC80021609DE70408014000080140040C014030
:100CD800000C01400410014000100140012818D008
:100CE80010B1022829D07047012A0AD0002A2FD132
:100CF800012303FA01F11B4A136823EA0103136075
:100D08007047012303FA01F1164A13680B43136075
:100D18007047012A09D0DAB9012303FA01F1124A0E
:100D2800136823EA010313607047012303FA01F1F2
:100D38000D4A13680B4313607047012A09D03AB96A
:100D4800012303FA01F1094A136823EA0103136036
:100D58007047012303FA01F1044A13680B43136037
:100D6800704700BF0C0801400C0C01400C100140FA
:100D780008B5FFF7E7FCFFF711FD00F0B3FA08BD6F
:100D880038B50024254603E0FFF710FD054401347B
:100D9800632CF9DD0248A0FB0530400938BD00BFCF
:100DA8001F85EB510000000008B5FFF7E9FF01F0CF
:100DB800EFFF07A3D3E9002302F064F806A3D3E901
:100DC800002302F05FF802F0F7FA08BDAFF30080E5
:100DD8007B14AE47E17AB43F1F85EB51B81EE53F5F
:100DE80008B5FFF7CDFF01F0D3FF0BA3D3E900232C
:100DF80002F048F80AA3D3E9002302F06DF90AA328
:100E0800D3E9002302F068F909A3D3E9002302F02B
:100E180039F802F0D1FA08BD6666666666660A4069
:100E28000000000000FEAF4000000000004CBD4084
:100E380000000000804FE24008B5FFF7A1FFA0F6D0
:100E4800E53000280EDB02F0C1FB094902F012FC74
:100E580001F0C0FF04A3D3E9002302F03DF902F03A
:100E6800ABFA08BD4042EEE7AE47E17A14AEC73FA1
:100E78006740533A2DE9F041002403E0642001F073
:100E880001FE2C46052C2CD8651CEDB22849A30080
:100E980023449A008E188D54204600F039FA6420B5
:100EA80001F0F0FDFFF780FF7060A01DC0B200F0F8
:100EB8002FFA642001F0E6FDFFF792FFB06014F00E
:100EC800010FDBD0631E1A4E03EB83039A003244F2
:100ED800916802F0C5FA04EB8404A3001E44B060D4
:100EE800CCE7002635461FE006F10C00C0B200F042
:100EF8000FFA642001F0C6FDFFF79EFF80460C4FF5
:100F080005EB850293003B44D8606C1CE4B2642076
:100F180001F0B8FD04EB8404A3001F44C7F80C805B
:100F28000235EDB20136F6B2022EDDD9BDE8F08108
:100F38002000002008B500F0FFF808BD2DE9F041B9
:100F480000F0A9F9002401271FE02A4800F074F9ED
:100F5800294E4FEA880505EB080293003344D86808
:100F680000F09EF9254800F067F94544AB001E449F
:100F7800306902F045FD00F082F942F2107001F08C
:100F880081FD00F088F90134E4B2052C30D8002145
:100F9800084600F05EF91A4800F04EF9A0461649D6
:100FA800A30023449A008D18885C02F00BFB00F024
:100FB80077F9144800F040F9134800F03DF96868E3
:100FC80000F06EF9114800F037F9A86800F068F9E8
:100FD8000021012000F03DF90D4800F02DF93846B8
:100FE80000F04DF914F0010FAFD00137FFB2ACE7B4
:100FF800BDE8F081C85A000820000020CC5A00083B
:10100800B45A0008B85A0008BC5A0008C05A000868
:10101800C45A000870B5FFF791FF0021084600F098
:1010280018F91D4E304600F007F90021012000F0A4
:1010380010F91A4D284600F0FFF8322000F01FF989
:10104800174C03223221204600F0E8FF0021084611
:1010580000F0FFF8304600F0EFF80021012000F022
:10106800F8F8284600F0E8F8642000F008F90322B0
:101078006421204600F0D2FF00F00DF90021084657
:1010880000F0E7F8074800F0D7F80322642120466B
:1010980000F0C4FF70BD00BF805A0008945A0008D1
:1010A800DC010020A05A000838B5044600220A21B5
:1010B8001046FFF713FE002209211046FFF70EFE27
:1010C800012001F0DFFC012208210020FFF706FEC5
:1010D800012001F0D7FC174D2B6823F0F00304F032
:1010E800F00213432B60012001F0CCFC0022082100
:1010F8001046FFF7F3FD012001F0C4FC012208218E
:101108000020FFF7EBFD012001F0BCFC2B6823F069
:10111800F0032401E4B21C432C60012001F0B2FC6E
:10112800002208211046FFF7D9FD012001F0AAFC92
:1011380038BD00BF0C08014008B501F09BFC022235
:1011480008210020FFF756FD02220A210020FFF7A0
:1011580051FD022209210020FFF74CFD0222042143
:101168000020FFF747FD022205210020FFF742FD7E
:10117800022206210020FFF73DFD02220721002060
:10118800FFF738FD0220FFF78FFF2820FFF78CFFBD
:101198000C20FFF789FF0120FFF786FF08BD00003C
:1011A80010B5044601220A210020FFF797FD00220E
:1011B80009211046FFF792FD012001F063FC01228E
:1011C80008210020FFF78AFD012001F05BFC194A85
:1011D800136823F0F00304F0F0010B4313600120BF
:1011E80001F050FC002208211046FFF777FD00238C
:1011F80000E00133B3F57A7FFBD3012208210020F8
:10120800FFF76CFD022001F03DFC0A490B6823F052
:10121800F0022301DBB213430B60012001F032FC22
:10122800002208211046FFF759FD012001F02AFC91
:1012380010BD00BF0C08014038B50546002404E085
:10124800C0B2FFF7ADFF0134E4B228570028F7D148
:1012580038BD08B5032803D8DFE800F003080B0EF3
:10126800002141F08000FFF71FFF08BD4031C9B2DF
:10127800F7E71031C9B2F4E75031C9B2F1E700B568
:1012880085B00A22694602F01DFC6846FFF7D4FFC4
:1012980005B05DF804FB08B50120FFF705FF08BDA0
:1012A80030B585B001F096FD04460D460AA3D3E992
:1012B800002302F059F850B96B460322204629460C
:1012C80002F0BEFB6846FFF7B7FF05B030BD044823
:1012D800FFF7B2FFF9E700BFFCA9F1D24D62503F1A
:1012E800D05A000808B5022200210120FFF782FC2D
:1012F800022201210846FFF77DFC02220521012078
:10130800FFF778FC022206210120FFF773FC08BDD5
:1013180008B50F2825D8DFE810F0100025003A009E
:101328004F00640079008E00A300B800CD00E200F1
:10133800F7000C01210136014B0100221146012062
:10134800FFF7CCFC002201210846FFF7C7FC00226A
:1013580005210120FFF7C2FC002206210120FFF72A
:10136800BDFC08BD012200211046FFF7B7FC002292
:1013780001210846FFF7B2FC002205210120FFF7F2
:10138800ADFC002206210120FFF7A8FCE9E70022B6
:1013980011460120FFF7A2FC012211461046FFF773
:1013A8009DFC002205210120FFF798FC0022062160
:1013B8000120FFF793FCD4E7012200211046FFF734
:1013C8008DFC012211461046FFF788FC00220521FA
:1013D8000120FFF783FC002206210120FFF77EFC95
:1013E800BFE7002211460120FFF778FC0022012107
:1013F8000846FFF773FC012205211046FFF76EFC33
:10140800002206210120FFF769FCAAE7012200213A
:101418001046FFF763FC002201210846FFF75EFC37
:10142800012205211046FFF759FC00220621012060
:10143800FFF754FC95E7002211460120FFF74EFC08
:10144800012211461046FFF749FC012205211046EA
:10145800FFF744FC002206210120FFF73FFC80E74C
:10146800012200211046FFF739FC012211461046DF
:10147800FFF734FC012205211046FFF72FFC00225C
:1014880006210120FFF72AFC6BE700221146012004
:10149800FFF724FC002201210846FFF71FFC002269
:1014A80005210120FFF71AFC012206211046FFF74B
:1014B80015FC56E7012200211046FFF70FFC002219
:1014C80001210846FFF70AFC002205210120FFF749
:1014D80005FC012206211046FFF700FC41E7002227
:1014E80011460120FFF7FAFB012211461046FFF7CB
:1014F800F5FB002205210120FFF7F0FB0122062160
:101508001046FFF7EBFB2CE7012200211046FFF7FE
:10151800E5FB012211461046FFF7E0FB00220521FA
:101528000120FFF7DBFB012206211046FFF7D6FB5F
:1015380017E7002211460120FFF7D0FB0022012106
:101548000846FFF7CBFB012205211046FFF7C6FB33
:10155800012206211046FFF7C1FB02E70122002104
:101568001046FFF7BBFB002201210846FFF7B6FB38
:10157800012205211046FFF7B1FB01220621104682
:10158800FFF7ACFBEDE6002211460120FFF7A6FBB2
:10159800012211461046FFF7A1FB01220521104642
:1015A800FFF79CFB012206211046FFF797FBD8E6C0
:1015B800012200211046FFF791FB01221146104637
:1015C800FFF78CFB012205211046FFF787FB01225C
:1015D80006211046FFF782FBC3E60000034B812279
:1015E8001A60043300221A60704700BF00100240DE
:1015F8001F291CD801280BD010B1022810D0704721
:10160800012303FA01F10A4A13680B431360704778
:10161800012303FA01F1074A13680B43136070476B
:10162800012303FA01F1044A13680B43136070475E
:10163800141002401C1002401810024008B500F0B7
:101648004DF8022207210120FFF7D4FA02220821CF
:101658000120FFF7CFFA022209210120FFF7CAFA79
:1016680008BD38B50546002207210120FFF736FBE3
:10167800002208210120FFF731FB00220921012067
:10168800FFF72CFB052419E02A5D07210120FFF74D
:1016980025FB0A2001F0F2F9012209211046FFF783
:1016A8001DFB0A2001F0EAF9002209210120FFF7B9
:1016B80015FB0A2001F0E2F9013C64B2002CE3DAE0
:1016C800012208211046FFF709FB0A2001F0D6F98C
:1016D800002208210120FFF701FB38BD014B002241
:1016E8001A60704710E000E00B4B18600B4A136853
:1016F80043F001031360094B1B6813F4803FFAD0D1
:10170800064A136823F001031360002304321360B0
:1017180004321360704700BF14E000E010E000E0FE
:1017280000B583B000238DF807300F4B1B786BB9D9
:101738000E4B1A6822F002021A601A6842F001027F
:101748001A6000230A4A136004321360094B1B68AD
:1017580003B19847054B1B68C3F300438DF8073066
:1017680003B05DF804FB00BF9401002010E000E026
:1017780014E000E09001002003782BBB4E4A136868
:1017880043F40063136042884C4B1A808288043B00
:101798001A80837953B94A4A13889BB223F01003FD
:1017A8009BB21380C379012B08D07047012BF9D164
:1017B800434A138843F010031380F3E7414A138820
:1017C80043F0010313807047012B21D0022B46D030
:1017D800032BEAD13C4A136843F0040313604288A0
:1017E8003A4B1A808288043B1A808379002B5BD19C
:1017F800374A13889BB223F010039BB21380C37936
:10180800012BD2D1334A138843F001031380CCE76C
:101818002D4A136843F00103136042882E4B1A8047
:101828008288043B1A80837983B94FF080421388F9
:101838009BB223F010039BB21380C379012BB4D160
:10184800264A138843F0010313807047012BF4D113
:101858004FF08042138843F010031380EDE71A4AD3
:10186800136843F00203136042881D4B1A80828874
:10187800043B1A8083797BB91A4A13889BB223F0F8
:1018880010039BB21380C379012B8ED1164A13889B
:1018980043F0010313807047012BF4D1114A1388D8
:1018A80043F010031380EEE7012BA8D1084A1388F0
:1018B80043F010031380A2E7181002402C2C0140BB
:1018C800002C01400C2C01401C1002402C08004048
:1018D800000800400C0800402C0000400C000040AC
:1018E8002C040040000400400C040040037833B18D
:1018F800012B0AD0022B0FD0032B13D070470C4AB0
:10190800138843F00103138070474FF08042138817
:1019180043F0010313807047064A138843F001031C
:1019280013807047044A138843F001031380E5E7E6
:10193800002C014000040040000800400378002B00
:1019480040F0BF800B78002B2DD18A78438803FBA9
:1019580002F3944A82FB0323C3F34F13924A138082
:101968004B7813B1012B10D070471C3A138843F001
:1019780040031380138843F02003138013889BB21D
:1019880023F010039BB213807047884B1A8842F0EB
:1019980040021A801A8842F020021A801A8842F0FF
:1019A80010021A807047012B21D0022B4CD0032B38
:1019B800DAD18A78438803FB02F37A4A82FB03234D
:1019C800C3F34F137A4A13804B78002B69D0012B4D
:1019D800CAD1784B1A8842F480421A801A8842F495
:1019E80000521A801A8842F480521A8070478A7806
:1019F800438803FB02F36B4A82FB0323C3F34F13B1
:101A08006D4A13804B787BB1012BADD1674B1A8897
:101A180042F480421A801A8842F400521A801A88C6
:101A280042F480521A807047203A138843F4804366
:101A38001380138843F40053138013889BB223F454
:101A480080539BB2138070478A78438803FB02F364
:101A5800544A82FB0323C3F34F13584A13804B782D
:101A68007BB1012B80D1534B1A8842F040021A8077
:101A78001A8842F020021A801A8842F010021A804E
:101A88007047203A138843F040031380138843F0CB
:101A98002003138013889BB223F010039BB213809A
:101AA8007047243A138843F480431380138843F41F
:101AB8000053138013889BB223F480539BB2138086
:101AC800704710B50C46012B06D0022B00F0EE80B3
:101AD800032B00F0C18110BD0B78002B2CD18A7824
:101AE800438803FB02F32F4A82FB0323C3F34F13FC
:101AF800334A13804B787BB1012BECD1314B1A88D8
:101B080042F040021A801A8842F020021A801A888D
:101B180042F010021A80DEE71C3A138843F04003B3
:101B28001380138843F02003138013889BB223F09B
:101B380010039BB21380CEE7012B4BD0022B77D03A
:101B4800032BC8D18A78438803FB02F3154A82FB2A
:101B58000323C3F34F131C4A13800B2203210020D5
:101B6800FFF748F8194A138843F480531380138801
:101B78009BB223F400539BB213806378002B00F0D0
:101B88008580012BA7D1124B1A8842F480421A8013
:101B98001A8842F400521A801A8842F480521A8035
:101BA80099E700BF1F85EB51342C0140182C0140E8
:101BB800402C01401C2C0140382C01403C2C014099
:101BC8003400004018000040400000402000004061
:101BD8001C0000408A78438803FB02F3954A82FB85
:101BE8000323C3F34F13944A13804B7883B1012B1B
:101BF8007FF471AF914B1A8842F480421A801A8898
:101C080042F400521A801A8842F480521A8062E71D
:101C1800203A138843F480431380138843F4005315
:101C2800138013889BB223F480539BB2138052E72E
:101C38008A78438803FB02F37E4A82FB0323C3F3BB
:101C48004F133C2213804B7883B1012B7FF443AFB1
:101C58007B4B1A8842F040021A801A8842F0200210
:101C68001A801A8842F010021A8034E7744A1388DE
:101C780043F040031380138843F020031380138834
:101C88009BB223F010039BB2138024E7043A138815
:101C980043F480431380138843F40053138013885C
:101CA8009BB223F480539BB2138014E70B78002B6C
:101CB8002DD18A78438803FB02F35E4A82FB032313
:101CC800C3F34F135F4A13804B7883B1012B7FF422
:101CD80002AF5D4B1A8842F040021A801A8842F01F
:101CE80020021A801A8842F010021A80F3E61C3A81
:101CF800138843F040031380138843F020031380B4
:101D080013889BB223F010039BB21380E3E6012BE8
:101D180023D0022B4FD0032B7FF4DDAE8A78438883
:101D280003FB02F3434A82FB0323C3F34F13474ADF
:101D380013804B78002B6DD0012B7FF4CCAE444B35
:101D48001A8842F480421A801A8842F400521A8093
:101D58001A8842F480521A80BDE68A78438803FBC9
:101D680002F3344A82FB0323C3F34F13394A138027
:101D78004B7883B1012B7FF4AEAE334B1A8842F413
:101D880080421A801A8842F400521A801A8842F453
:101D980080521A809FE6203A138843F480431380C8
:101DA800138843F40053138013889BB223F48053A1
:101DB8009BB213808FE68A78438803FB02F31D4A9F
:101DC80082FB0323C3F34F1340F23C4213804B784A
:101DD80083B1012B7FF47FAE1D4B1A8842F040027D
:101DE8001A801A8842F020021A801A8842F01002DB
:101DF8001A8070E6164A138843F04003138013884C
:101E080043F02003138013889BB223F010039BB286
:101E1800138060E6243A138843F4804313801388C0
:101E280043F40053138013889BB223F480539BB26E
:101E3800138050E61F85EB51380000401800004021
:101E48001C000040340400401804004040040040D6
:101E58001C040040380400400B78002B2DD18A78F0
:101E6800438803FB02F3664A82FB0323C3F34F1341
:101E7800644A13804B7883B1012B7FF42CAE624BFC
:101E88001A8842F040021A801A8842F020021A800A
:101E98001A8842F010021A801DE61C3A138843F093
:101EA80040031380138843F02003138013889BB2E8
:101EB80023F010039BB213800DE6012B33D0022BC5
:101EC8005FD0032B7FF407AE8A78438803FB02F3C5
:101ED8004B4A82FB0323C3F34F134C4A13800B2254
:101EE80009210120FEF786FE494A138843F48053EE
:101EF800138013889BB223F400539BB2138063783A
:101F0800002B6DD0012B7FF4E6AD424B1A8842F4CA
:101F180080421A801A8842F400521A801A8842F4C1
:101F280080521A80D7E58A78438803FB02F3344A43
:101F380082FB0323C3F34F13374A13804B7883B1D3
:101F4800012B7FF4C8AD304B1A8842F480421A80C6
:101F58001A8842F400521A801A8842F480521A8071
:101F6800B9E5203A138843F480431380138843F477
:101F78000053138013889BB223F480539BB21380C1
:101F8800A9E58A78438803FB02F31D4A82FB0323F1
:101F9800C3F34F1340F63C0213804B7883B1012BF7
:101FA8007FF499AD1B4B1A8842F040021A801A88B8
:101FB80042F020021A801A8842F010021A808AE53C
:101FC800144A138843F040031380138843F0200316
:101FD800138013889BB223F010039BB213807AE519
:101FE800043A138843F480431380138843F400535E
:101FF800138013889BB223F480539BB213806AE545
:102008001F85EB5134080040180800404008004084
:10201800200800401C080040380800400378002BC6
:1020280032D182B1012A19D0022A22D0032A31D111
:10203800438803FB01F3654981FB0323C3F34F1373
:10204800634A13807047438803FB01F35F4981FBB0
:102058000323C3F34F135F4A13807047438803FB7E
:1020680001F35A4981FB0323C3F34F135A4A1380E0
:102078007047438803FB01F3544981FB0323C3F3EF
:102088004F13564A13807047012B04D0022B35D0CA
:10209800032B67D0704782B1012A19D0022A22D0B7
:1020A800032AF7D1438803FB01F3484A82FB032341
:1020B800C3F34F134A4A13807047438803FB01F365
:1020C800424981FB0323C3F34F13464A13807047E9
:1020D800438803FB01F33D4981FB0323C3F34F13FB
:1020E800414A13807047438803FB01F3374981FB5A
:1020F8000323C3F34F133C221380704782B1012A94
:1021080019D0022A22D0032AC4D1438803FB01F341
:102118002E4A82FB0323C3F34F13344A13807047BC
:10212800438803FB01F3294981FB0323C3F34F13BE
:102138002F4A13807047438803FB01F3234981FB2F
:102148000323C3F34F132B4A13807047438803FBC1
:1021580001F31E4A82FB0323C3F34F1340F23C42B0
:102168001380704782B1012A19D0022A22D0032A8B
:1021780090D1438803FB01F3144A82FB0323C3F382
:102188004F131D4A138085E7438803FB01F30F496A
:1021980081FB0323C3F34F13184A13807047438806
:1021A80003FB01F3094A82FB0323C3F34F13144AC9
:1021B80013807047438803FB01F3044A82FB03231F
:1021C800C3F34F1340F63C02138070471F85EB5151
:1021D800402C0140342C0140382C01403C2C01405B
:1021E80040000040340000403800004040040040F7
:1021F80034040040380400404008004034080040DF
:102208003808004010B50848002484710223037080
:10221800012383804FF4FA524280C371FFF7ACFA6E
:10222800024B1C8010BD00BFD001002024040040D8
:1022380038B50B4C0025A57101232370A3804EF6F9
:1022480060236380E5712046FFF796FA054903236A
:102258000B704D708D702046FFF770FB38BD00BFC6
:10226800DC010020D801002008B5FFF7CBFFFFF7FD
:10227800DFFF0648FFF73AFB0548FFF737FB012267
:1022880011460020FEF7B6FC08BD00BFD0010020B3
:10229800DC01002010B5854B5C688549204601F0BB
:1022A800A5FBF8B1814B9969204601F095FBC8B1AF
:1022B8007E4BD96A204601F08FFB98B17B4B196C95
:1022C800204601F089FB68B1784B596D204601F032
:1022D80083FB38B1754B996E204601F07DFB0028D1
:1022E80040F0F280714B9C697149204601F07EFBF9
:1022F800F8B16E4B5968204601F06EFBC8B16B4BC4
:10230800D96A204601F068FB98B1684B196C2046E1
:1023180001F062FB68B1654B596D204601F05CFB2A
:1023280038B1624B996E204601F056FB002840F008
:1023380027815E4BDC6A5E49204601F057FBF8B105
:102348005A4B9969204601F047FBC8B1574B596869
:10235800204601F041FB98B1544B196C204601F01E
:102368003BFB68B1514B596D204601F035FB38B144
:102378004E4B996E204601F02FFB002840F0578104
:102388004A4B1C6C4A49204601F030FBF8B1474BD8
:102398009969204601F020FBC8B1444BD96A204610
:1023A80001F01AFB98B1414B5968204601F014FB23
:1023B80068B13E4B596D204601F00EFB38B13B4BDE
:1023C800996E204601F008FB002840F08781374BC2
:1023D8005C6D3749204601F009FBF8B1334B996928
:1023E800204601F0F9FAC8B1304BD96A204601F00D
:1023F800F3FA98B12D4B196C204601F0EDFA68B14B
:102408002A4B5968204601F0E7FA38B1274B996EF4
:10241800204601F0E1FA002840F0B881234B9C6E79
:102428002349204601F0E2FAF8B1204B9969204689
:1024380001F0D2FAC8B11D4BD96A204601F0CCFA96
:1024480098B11A4B196C204601F0C6FA68B1174BBF
:10245800596D204601F0C0FA38B1144B596820462E
:1024680001F0BAFA002840F0128212490F4B58685E
:1024780001F0A8FA38B30F490C4B986901F0A2FA99
:1024880008B30C49094BD86A01F09CFAD8B109493C
:10249800064B186C01F096FAA8B10649034B586D23
:1024A80001F090FA78B1034906E000BF200000204F
:1024B8000000F0410000C841C54B986E01F082FA57
:1024C800002840F03B8210BDC24C237801332370B2
:1024D800FEF7E1FE2378052B1DD900210846FEF7FB
:1024E800B8FEBD48FEF7A8FE03220021BB48FFF74F
:1024F80095FD00210120FEF7ACFEB948FEF79CFED1
:10250800012207211046FEF7E9FB012211460020AF
:10251800FEF7E4FBE6E600210846FEF79AFEB1481E
:10252800FEF78AFEB049AA4B586800F099FFAF49F8
:1025380001F0A0F801F064FA044600210120FEF73A
:1025480088FEAB48FEF778FE642C0BD903220021E5
:10255800A248FFF763FD6420FEF791FEA548FEF749
:102568006BFEBFE6C4F164010322C9B29B48FFF7C2
:1025780055FD2046FEF783FE9E48FEF75DFEB1E658
:102588009D4C237801332370FEF785FE2378052BB5
:1025980018D900210846FEF75CFE9848FEF74CFE65
:1025A800032200218D48FFF739FD00210120FEF7A5
:1025B80050FE8B48FEF740FE012207211046FEF729
:1025C8008DFBB6E600210846FEF743FE8C48FEF771
:1025D80033FE85497E4B986900F042FF834901F03C
:1025E80049F801F00DFA044600210120FEF731FEFA
:1025F8007F48FEF721FE642C0BD90322002177487F
:10260800FFF70CFD6420FEF73AFE7A48FEF714FE49
:102618008FE6C4F164010322C9B27048FFF7FEFCDB
:102628002046FEF72CFE7348FEF706FE81E6754C41
:10263800237801332370FEF72EFE2378052B18D953
:1026480000210846FEF705FE6F48FEF7F5FD032258
:1026580000216248FFF7E2FC00210120FEF7F9FDA6
:102668005F48FEF7E9FD012207211046FEF736FB19
:1026780086E600210846FEF7ECFD6448FEF7DCFD1F
:102688005949534BD86A00F0EBFE584900F0F2FF65
:1026980001F0B6F9044600210120FEF7DAFD54489E
:1026A800FEF7CAFD642C0BD9032200214B48FFF723
:1026B800B5FC6420FEF7E3FD4E48FEF7BDFD5FE67E
:1026C800C4F164010322C9B24448FFF7A7FC2046BD
:1026D800FEF7D5FD4748FEF7AFFD51E64C4A1378A3
:1026E80001331370FEF7D7FD464B1B78052B18D91D
:1026F80000210846FEF7ADFD4648FEF79DFD032282
:1027080000213648FFF78AFC00210120FEF7A1FDD1
:102718003348FEF791FD012207211046FEF7DEFA45
:1027280055E600210846FEF794FD3B48FEF784FD78
:102738002D49274B186C00F093FE2C4900F09AFFA6
:1027480001F05EF9044600210120FEF782FD2848C9
:10275800FEF772FD642C0BD9032200211F48FFF7F6
:102768005DFC6420FEF78BFD2248FEF765FD2EE632
:10277800C4F164010322C9B21848FFF74FFC204690
:10278800FEF77DFD1B48FEF757FD20E6234C237816
:1027980001332370FEF77FFD2378052B42D90021F2
:1027A8000846FEF756FD1E48FEF746FD03220021A7
:1027B8000A48FFF733FC00210120FEF74AFD0848CC
:1027C800FEF73AFD012207211046FEF787FA25E6B3
:1027D8002000002096010020A05A0008DC010020FB
:1027E800D45A0008805A00080000F0410000204137
:1027F800945A0008E85A000897010020F05A000887
:10280800045B000898010020185B00082C5B000896
:1028180099010020405B0008545B00089A010020E1
:10282800685B000800210846FEF713FD5748FEF7CD
:1028380003FD5749574B586D00F012FE564900F0FA
:1028480019FF01F0DDF8044600210120FEF701FD23
:102858005248FEF7F1FC642C0BD9032200215048A2
:10286800FFF7DCFB6420FEF70AFD4E48FEF7E4FCA8
:10287800D4E5C4F164010322C9B24948FFF7CEFB8D
:102888002046FEF7FCFC4748FEF7D6FCC6E5464C5A
:10289800237801332370FEF7FEFC2378052B18D923
:1028A80000210846FEF7D5FC4048FEF7C5FC032288
:1028B80000213B48FFF7B2FB00210120FEF7C9FCCD
:1028C8003B48FEF7B9FC012207211046FEF706FA3D
:1028D800CBE500210846FEF7BCFC3648FEF7ACFC09
:1028E8002B492C4B986E00F0BBFD2B4900F0C2FE23
:1028F80001F086F8044600210120FEF7AAFC2748CB
:10290800FEF79AFC642C0BD9032200212448FFF718
:1029180085FB6420FEF7B3FC2248FEF78DFCA4E596
:10292800C4F164010322C9B21D48FFF777FB2046B2
:10293800FEF7A5FC1B48FEF77FFC96E500241E4B1E
:102948001C701E4B1C701E4B1C701E4B1C701E4BAB
:102958001C70154B1C70032264211148FFF75EFBA5
:10296800224607210120FEF7B9F9FEF794FC21461B
:102978002046FEF76EFC1548FEF75EFC2146012056
:10298800FEF767FC1248FEF757FC9CE57C5B0008E5
:102998000000F0412000002000002041945A000867
:1029A800DC010020E85A00089B010020905B000829
:1029B800D45A0008A45B0008960100209701002063
:1029C80098010020990100209A010020B85B0008B6
:1029D800D05B00080F4A13680133136040F6B83221
:1029E80093420ED901230B4A13600B4A13600B4A1A
:1029F80013781433DBB21370642B02D91346002208
:102A08001A70074B00221A80064A138843F04003C5
:102A1800138070479C010020A00100209501002030
:102A2800100400400C040040084B40F241329A6008
:102A3800DA6842F00402DA60DA6842F00802DA6022
:102A4800DA6842F40052DA60704700BF0044004080
:102A5800002208E0064B1B6813F0800FFAD0044BE5
:102A680059600132D2B2815C0029F3D1704700BFAE
:102A78000044004008B5FEF731FE08BD08B5FEF772
:102A880033FE08BD08B54FF47A7303FB00F0FEF778
:102A98002BFE08BD08B5FEF7A1FD02210846FEF78A
:102AA800A7FD03210220FEF7A3FD04210220FEF763
:102AB8009FFD09210220FEF79BFD00210220FEF761
:102AC80097FD11210120FEF793FDFFF7D3FFFEF7D5
:102AD8004FF9FDF7B5FFFDF76FFEFEF72BFAFDF78F
:102AE8000DFFFFF7C1FBFEF7C5F9FEF701F8FDF78B
:102AF80025FFFFF7CFFBFDF769FEFEF78BFAFEF720
:102B08001DFA42F21070FFF7BDFFECE781F00041BB
:102B180002E000BF83F0004330B54FEA41044FEABA
:102B2800430594EA050F08BF90EA020F1FBF54EA55
:102B3800000C55EA020C7FEA645C7FEA655C00F0F1
:102B4800E2804FEA5454D4EB5555B8BF6D420CDDC2
:102B58002C4480EA020281EA030382EA000083EA45
:102B6800010180EA020281EA0303362D88BF30BDE5
:102B780011F0004F4FEA01314FF4801C4CEA11313B
:102B880002D0404261EB410113F0004F4FEA03339A
:102B98004CEA133302D0524263EB430394EA050F25
:102BA80000F0A780A4F10104D5F1200E0DDB02FA94
:102BB8000EFC22FA05F2801841F1000103FA0EF228
:102BC800801843FA05F359410EE0A5F120050EF1EE
:102BD800200E012A03FA0EFC28BF4CF0020C43FA1F
:102BE80005F3C01851EBE37101F0004507D54FF02C
:102BF800000EDCF1000C7EEB00006EEB0101B1F57C
:102C0800801F1BD3B1F5001F0CD349085FEA3000C1
:102C18004FEA3C0C04F101044FEA445212F5800FCC
:102C280080F09A80BCF1004F08BF5FEA500C50F169
:102C3800000041EB045141EA050130BD5FEA4C0C4C
:102C4800404141EB010111F4801FA4F10104E9D1D5
:102C580091F0000F04BF01460020B1FA81F308BFCC
:102C68002033A3F10B03B3F120020CDA0C3208DD98
:102C780002F1140CC2F10C0201FA0CF021FA02F173
:102C88000CE002F11402D8BFC2F1200C01FA02F1E3
:102C980020FA0CFCDCBF41EA0C019040E41AA2BF08
:102CA80001EB0451294330BD6FEA04041F3C1CDAD0
:102CB8000C340EDC04F11404C4F1200220FA04F0F0
:102CC80001FA02F340EA030021FA04F345EA03019A
:102CD80030BDC4F10C04C4F1200220FA02F001FA5C
:102CE80004F340EA0300294630BD21FA04F02946DE
:102CF80030BD94F0000F83F4801306BF81F4801177
:102D08000134013D4EE77FEA645C18BF7FEA655CE9
:102D180029D094EA050F08BF90EA020F05D054EABB
:102D2800000C04BF1946104630BD91EA030F1EBFC0
:102D38000021002030BD5FEA545C05D140004941C4
:102D480028BF41F0004130BD14F580043CBF01F5B7
:102D5800801130BD01F0004545F0FE4141F470019D
:102D68004FF0000030BD7FEA645C1ABF1946104678
:102D78007FEA655C1CBF0B46024650EA013406BF79
:102D880052EA033591EA030F41F4002130BD00BF38
:102D980090F0000F04BF0021704730B54FF48064F5
:102DA80004F132044FF000054FF0000150E700BF76
:102DB80090F0000F04BF0021704730B54FF48064D5
:102DC80004F1320410F0004548BF40424FF00001C2
:102DD8003EE700BF42004FEAE2014FEA31014FEA05
:102DE80002701FBF12F07F4393F07F4F81F0605154
:102DF800704732F07F4208BF704793F07F4F04BF9F
:102E080041F40021704730B54FF4607401F000457B
:102E180021F000411CE700BF50EA010208BF7047DB
:102E280030B54FF000050AE050EA010208BF7047CC
:102E380030B511F0004502D5404261EB41014FF435
:102E4800806404F132045FEA915C3FF4D8AE4FF03D
:102E580003025FEADC0C18BF03325FEADC0C18BF20
:102E6800033202EBDC02C2F1200300FA03FC20FA71
:102E780002F001FA03FE40EA0E0021FA02F11444BE
:102E8800BDE600BF70B54FF0FF0C4CF4E06C1CEAD7
:102E980011541DBF1CEA135594EA0C0F95EA0C0F48
:102EA80000F0DEF82C4481EA030621EA4C5123EABB
:102EB8004C5350EA013518BF52EA033541F48011EA
:102EC80043F4801338D0A0FB02CE4FF00005E1FB9D
:102ED80002E506F00042E0FB03E54FF00006E1FBE7
:102EE80003569CF0000F18BF4EF0010EA4F1FF042A
:102EF800B6F5007F64F5407404D25FEA4E0E6D416A
:102F080046EB060642EAC62141EA55514FEAC5207A
:102F180040EA5E504FEACE2EB4F1FD0C88BFBCF5F6
:102F2800E06F1ED8BEF1004F08BF5FEA500E50F1A7
:102F3800000041EB045170BD06F0004646EA01016D
:102F480040EA020081EA0301B4EB5C04C2BFD4EB9F
:102F58000C0541EA045170BD41F480114FF0000E98
:102F6800013C00F3AB8014F1360FDEBF002001F006
:102F7800004170BDC4F10004203C35DA0C341BDC80
:102F880004F11404C4F1200500FA05F320FA04F052
:102F980001FA05F240EA020001F0004221F0004186
:102FA80010EBD37021FA04F642EB06015EEA430EF9
:102FB80008BF20EAD37070BDC4F10C04C4F1200529
:102FC80000FA04F320FA05F001FA04F240EA0200DC
:102FD80001F0004110EBD37041F100015EEA430EAD
:102FE80008BF20EAD37070BDC4F1200500FA05F2CD
:102FF8004EEA020E20FA04F301FA05F243EA02034C
:1030080021FA04F001F0004121FA04F220EA02005A
:1030180000EBD3705EEA430E08BF20EAD37070BDA0
:1030280094F0000F0FD101F00046400041EB010180
:1030380011F4801F08BF013CF7D041EA060195F062
:10304800000F18BF704703F00046520043EB03031C
:1030580013F4801F08BF013DF7D043EA0603704709
:1030680094EA0C0F0CEA135518BF95EA0C0F0CD014
:1030780050EA410618BF52EA4306D1D181EA03015A
:1030880001F000414FF0000070BD50EA410606BF54
:103098001046194652EA430619D094EA0C0F02D199
:1030A80050EA013613D195EA0C0F05D152EA0336DE
:1030B8001CBF104619460AD181EA030101F00041FC
:1030C80041F0FE4141F470014FF0000070BD41F045
:1030D800FE4141F4780170BD70B54FF0FF0C4CF41F
:1030E800E06C1CEA11541DBF1CEA135594EA0C0F3E
:1030F80095EA0C0F00F0A7F8A4EB050481EA030E8B
:1031080052EA03354FEA013100F088804FEA033371
:103118004FF0805545EA131343EA12634FEA02223F
:1031280045EA111545EA10654FEA00260EF0004100
:103138009D4208BF964244F1FD0404F5407402D252
:103148005B084FEA3202B61A65EB03055B084FEAE3
:1031580032024FF480104FF4002CB6EB020E75EBE0
:10316800030E22BFB61A754640EA0C005B084FEA08
:103178003202B6EB020E75EB030E22BFB61A754685
:1031880040EA5C005B084FEA3202B6EB020E75EBD0
:10319800030E22BFB61A754640EA9C005B084FEA48
:1031A8003202B6EB020E75EB030E22BFB61A754655
:1031B80040EADC0055EA060E18D04FEA051545EA44
:1031C80016754FEA06164FEAC30343EA52734FEAED
:1031D800C2025FEA1C1CC0D111F4801F0BD141EA66
:1031E80000014FF000004FF0004CB6E711F4801FCB
:1031F80004BF01430020B4F1FD0C88BFBCF5E06FAB
:103208003FF6AFAEB5EB030C04BFB6EB020C5FEABA
:10321800500C50F1000041EB045170BD0EF0004E0F
:103228004EEA113114EB5C04C2BFD4EB0C0541EA41
:10323800045170BD41F480114FF0000E013C90E63E
:1032480045EA060E8DE60CEA135594EA0C0F08BF02
:1032580095EA0C0F3FF43BAF94EA0C0F0AD150EA01
:1032680001347FF434AF95EA0C0F7FF425AF104694
:1032780019462CE795EA0C0F06D152EA03353FF4BC
:10328800FDAE1046194622E750EA410618BF52EA39
:1032980043067FF4C5AE50EA41047FF40DAF52EA0D
:1032A80043057FF4EBAE12E74FF0FF3C06E000BFAA
:1032B8004FF0010C02E000BF4FF0010C4DF804CDB7
:1032C8004FEA410C7FEA6C5C4FEA430C18BF7FEA77
:1032D8006C5C1BD001B050EA410C0CBF52EA430CA5
:1032E80091EA030F02BF90EA020F0020704710F125
:1032F800000F91EA030F58BF994208BF90422CBFB4
:10330800D8176FEAE37040F0010070474FEA410CAC
:103318007FEA6C5C02D150EA013C07D14FEA430CCA
:103328007FEA6C5CD6D152EA033CD3D05DF8040B3B
:10333800704700BF8446104662468C46194663466D
:1033480000E000BF01B5FFF7B7FF002848BF10F144
:10335800000F01BD4DF808EDFFF7F4FF0CBF012089
:1033680000205DF808FB00BF4DF808EDFFF7EAFF05
:1033780034BF012000205DF808FB00BF4DF808EDC0
:10338800FFF7E0FF94BF012000205DF808FB00BFB5
:103398004DF808EDFFF7CEFF94BF012000205DF83F
:1033A80008FB00BF4DF808EDFFF7C4FF34BF01204C
:1033B80000205DF808FB00BF4FEA4102B2F1E0438C
:1033C80024BFB3F5001CDCF1FE5C0DD901F0004C04
:1033D8004FEAC0024CEA5070B2F1004F40EB830054
:1033E80008BF20F00100704711F0804F21D113F180
:1033F8003872BCBF01F00040704741F480114FEAB9
:103408005252C2F11802C2F1200C10FA0CF320FA41
:1034180002F018BF40F001004FEAC1234FEAD3235E
:1034280003FA0CFC40EA0C0023FA02F34FEA4303C8
:10343800CCE77FEA625307D150EA01331EBF4FF051
:10344800FE4040F44000704701F0004040F0FE406C
:1034580040F40000704700BF80F0004002E000BF69
:1034680081F0004142001FBF5FEA410392EA030F67
:103478007FEA226C7FEA236C6AD04FEA1262D2EBB1
:103488001363C1BFD218414048404140B8BF5B42B6
:10349800192B88BF704710F0004F40F4000020F04F
:1034A8007F4018BF404211F0004F41F4000121F065
:1034B8007F4118BF494292EA030F3FD0A2F10102AF
:1034C80041FA03FC10EB0C00C3F1200301FA03F1ED
:1034D80000F0004302D5494260EB4000B0F5000F10
:1034E80013D3B0F1807F06D340084FEA310102F1CF
:1034F8000102FE2A51D2B1F1004F40EBC25008BF81
:1035080020F0010040EA03007047490040EB00004A
:1035180010F4000FA2F10102EDD1B0FA80FCACF179
:10352800080CB2EB0C0200FA0CF0AABF00EBC25078
:1035380052421843BCBFD0401843704792F0000F66
:1035480081F4000106BF80F400000132013BB5E7B9
:103558004FEA41037FEA226C18BF7FEA236C21D02F
:1035680092EA030F04D092F0000F08BF0846704794
:1035780090EA010F1CBF0020704712F07F4F04D162
:10358800400028BF40F00040704712F100723CBF75
:1035980000F50000704700F0004343F0FE4040F49F
:1035A800000070477FEA226216BF08467FEA23635D
:1035B8000146420206BF5FEA412390EA010F40F448
:1035C800800070474FF0000304E000BF10F0004394
:1035D80048BF40425FEA000C08BF704743F096437B
:1035E80001464FF000001CE050EA010208BF704796
:1035F8004FF000030AE000BF50EA010208BF70471D
:1036080011F0004302D5404261EB41015FEA010C31
:1036180002BF84460146002043F0B64308BFA3F129
:103628008053A3F50003BCFA8CF2083AA3EBC2530B
:1036380010DB01FA02FC634400FA02FCC2F120022A
:10364800BCF1004F20FA02F243EB020008BF20F061
:103658000100704702F1200201FA02FCC2F12002C7
:1036680050EA4C0021FA02F243EB020008BF20EABC
:10367800DC7070474FF0FF0C1CEAD0521EBF1CEAEA
:10368800D15392EA0C0F93EA0C0F6FD01A4480EAD8
:10369800010C400218BF5FEA41211ED04FF00063C1
:1036A80043EA501043EA5111A0FB01310CF00040ED
:1036B800B1F5000F3EBF490041EAD3715B0040EA13
:1036C800010062F17F02FD2A1DD8B3F1004F40EBE3
:1036D800C25008BF20F00100704790F0000F0CF0B6
:1036E800004C08BF49024CEA502040EA51207F3A7A
:1036F800C2BFD2F1FF0340EAC250704740F4000055
:103708004FF00003013A5DDC12F1190FDCBF00F045
:1037180000407047C2F10002410021FA02F1C2F1F3
:10372800200200FA02FC5FEA310040F1000053EA8F
:103738004C0308BF20EADC70704792F0000F00F0DD
:10374800004C02BF400010F4000F013AF9D040EAE3
:103758000C0093F0000F01F0004C02BF490011F477
:10376800000F013BF9D041EA0C018FE70CEAD15375
:1037780092EA0C0F18BF93EA0C0F0AD030F0004CF5
:1037880018BF31F0004CD8D180EA010000F00040A9
:10379800704790F0000F17BF90F0004F084691F067
:1037A800000F91F0004F14D092EA0C0F01D14202A1
:1037B8000FD193EA0C0F03D14B0218BF084608D16A
:1037C80080EA010000F0004040F0FE4040F40000B4
:1037D800704740F0FE4040F4400070474FF0FF0C47
:1037E8001CEAD0521EBF1CEAD15392EA0C0F93EA8E
:1037F8000C0F69D0A2EB030280EA010C49024FEAE0
:10380800402037D04FF0805343EA111143EA101398
:103818000CF000408B4238BF5B0042F17D024FF450
:10382800000C8B4224BF5B1A40EA0C00B3EB510F2B
:1038380024BFA3EB510340EA5C00B3EB910F24BF14
:10384800A3EB910340EA9C00B3EBD10F24BFA3EB99
:10385800D10340EADC001B0118BF5FEA1C1CE0D161
:10386800FD2A3FF650AF8B4240EBC25008BF20F014
:10387800010070470CF0004C4CEA50207F32C2BF68
:10388800D2F1FF0340EAC250704740F400004FF005
:103898000003013A37E792F0000F00F0004C02BF36
:1038A800400010F4000F013AF9D040EA0C0093F000
:1038B800000F01F0004C02BF490011F4000F013B5A
:1038C800F9D041EA0C0195E70CEAD15392EA0C0FC2
:1038D80008D142027FF47DAF93EA0C0F7FF470AFFA
:1038E800084676E793EA0C0F04D14B023FF44CAF3D
:1038F80008466EE730F0004C18BF31F0004CCAD1D2
:1039080030F000427FF45CAF31F000437FF43CAF0D
:103918005FE700BF4FF0FF3C06E000BF4FF0010C2F
:1039280002E000BF4FF0010C4DF804CD4FEA400211
:103938004FEA41037FEA226C18BF7FEA236C11D05B
:1039480001B052EA530C18BF90EA010F58BFB2EB0E
:10395800030088BFC81738BF6FEAE17018BF40F08E
:10396800010070477FEA226C02D15FEA402C05D142
:103978007FEA236CE4D15FEA412CE1D05DF8040BC7
:10398800704700BF844608466146FFE70FB5FFF75A
:10399800C9FF002848BF10F1000F0FBD4DF808ED12
:1039A800FFF7F4FF0CBF012000205DF808FB00BF03
:1039B8004DF808EDFFF7EAFF34BF012000205DF85D
:1039C80008FB00BF4DF808EDFFF7E0FF94BF0120AA
:1039D80000205DF808FB00BF4DF808EDFFF7D2FFA7
:1039E80094BF012000205DF808FB00BF4DF808EDEA
:1039F800FFF7C8FF34BF012000205DF808FB00BFB7
:103A080042000ED2B2F1FE4F0BD34FF09E03B3EB40
:103A1800126209D44FEA002343F0004323FA02F06C
:103A280070474FF00000704712F1610F01D1420258
:103A380002D14FF0FF3070474FF00000704700BFD1
:103A4800F0B51C4685B000231546002206460F46F1
:103A5800FFF78AFC234618B12D22013D03F8012BFC
:103A680067220021CDE90053CDE9022105493246FC
:103A78003B46086800F014F9002814BF20460020CF
:103A880005B0F0BD98000020014B1868704700BFD2
:103A980098000020931E222B10B50C4604D9002351
:103AA8001C460B70204610BD0A2A09D1002807DAE7
:103AB8002D230B7001214042214400F005F8F1E765
:103AC8000021F9E7FFF7E6BFF0B58BB005460C46D5
:103AD8006E461B4B03F1200C3746186859680833AB
:103AE80003C763453E46F7D118681B7938603B71B8
:103AF800931E222B4FF0000304D923701C46204646
:103B08000BB0F0BD661EB5FBF2F002FB10550AAF14
:103B18003D4415F8285C591C06F8015F054668B94C
:103B2800224660542344191B101B8142E7DD11789B
:103B3800187802F8010B03F80119F4E70B46E2E7DD
:103B4800E05B000830B5141E05469BB0184605DA40
:103B58008B234FF0FF302B601BB030BD4FF4027346
:103B6800ADF80C300CBF234604F1FF3302930593E4
:103B78004FF6FF7300910491ADF80E3002461E9B7C
:103B88006946284600F03AFD431CBCBF8B232B60D6
:103B9800002CE1D00022009B1A70DDE707B50093E6
:103BA80013460A46014603480068FFF7CBFF03B0F7
:103BB8005DF804FB98000020F0B58BB00F4608A90B
:103BC800109C049107A9039109A90291611C019114
:103BD800022100919DF84460129D01F035F842F2EF
:103BE8000F7301460998984204D1384600F094FFB3
:103BF8000BB0F0BD0B783B70002D42D1002C40D1AA
:103C08007B1C11F8012F0AB1002C3EDC672E43D033
:103C1800472E43D01A4630271D19A91A002938DC27
:103C2800002CA8BF1B19411E002909911A46B7BFCD
:103C38002D212B21C0F101000990099802F8026B8F
:103C4800B4BF5970597063280BDD642190FBF1F102
:103C580001F13004DA1C9C706FF0630303FB01016F
:103C680009910A23099991FBF3F303F130001070CD
:103C78006FF0090000FB0313303353700023937077
:103C8800B6E72E22BB1C7A70BBE703F8012B013C78
:103C9800B7E702F8017BC0E76526C4E74526C2E717
:103CA8002DE9F04317461D468BB08146DDE91264C5
:103CB8000022002338462946DDF85480FFF754FBDC
:103CC80008B105F100450022002338462946FFF7D0
:103CD80041FB38B1302323700023637020460BB0BA
:103CE800BDE8F08352A3D3E9002338462946FFF7FD
:103CF80045FB68B19DF85030013E0193CDF808802E
:103D080000963A462B4621464846FFF755FFE5E719
:103D1800304600F06FFB3A462B46FFF72FFB002892
:103D2800E8D10022444B29463846FFF71DFB09A974
:103D380008AA07ABCDE90321CDE9016388B30323C2
:103D480000933A462B46484600F07EFF42F20F7336
:103D5800079A9A4227D023462644074610F8011BA3
:103D6800F21A079D49B3002D22DCB8F1000F02D1E9
:103D78003978002949D09C4204BF302121704FF086
:103D88002E014FF000004FF0300608BF631C197079
:103D98000799013300290D4624DB00B10791791EEC
:103DA8002BE00223CCE70146204600F0B5FE95E75C
:103DB800013D03F8011B0795CFE7AD1A302605E052
:103DC800002A06DD012103F8016B013AA818002832
:103DD800F6DC0029C9D00790C7E703F8016B013A60
:103DE8000120D7E7002A01F10101F6DC0028D6D02E
:103DF8000795D4E703F8010B013A11F8010F08B150
:103E0800002AF7DCB8F1000F0BD100221A7065E721
:103E180001F8016B681A0028FADC002AA8BF9B1871
:103E2800F3E719469D183026F4E700BFAFF300808A
:103E38002D431CEBE2361A3F0000F03F70B5456A8F
:103E480004460E463DB9102001F0B2FC6062C0E99C
:103E580001550560C560656AEB6883B1636ADB6814
:103E680053F82600B8B9012101FA06F56A1D920037
:103E7800204600F0DBFA60B1C0E901650EE02122BE
:103E88000421204600F0D2FA636AE860DB68002B60
:103E9800E4D1002070BD026843F826200023C0E961
:103EA8000333F7E770B5446A06460D463CB910205F
:103EB80001F07EFC7062C0E901440460C4603DB159
:103EC800736A6A68DB6853F82210296043F8225045
:103ED80070BD2DE9F0411F4606460C4600230D69CA
:103EE80001F1140CDCF80000013381B202FB01710E
:103EF800000C0F0C02FB007089B201EB00419D42DF
:103F08004FEA10474CF8041BECDCD7B1A368AB426E
:103F180012DC616830460131FFF790FF8046226964
:103F280004F10C01023292000C3001F057FC2146DA
:103F38003046FFF7B7FF444604EB850301355F6160
:103F480025612046BDE8F081020C12040346B2B98F
:103F58000304102013F07F4F04BF1B02083013F036
:103F6800704F04BF1B01043013F0404F04BF9B0087
:103F78000230002B06DB5B0003D5013070470020C0
:103F8800E8E7202070470368014613F007020BD0CA
:103F9800DA0723D4980749BF5B089B0801200B6008
:103FA8005CBF0B600220704798B2A8B910201B0CA8
:103FB80013F0FF0F04BF1B0A08301A0704BF1B09C0
:103FC80004309A0704BF9B080230DA0702D45B0862
:103FD80006D001300B6070471046E9E700207047B3
:103FE8002020704710B50C460121FFF727FF01225A
:103FF8004461026110BD2DE9F74F14460A6923692F
:1040080088469A42BEBF0B46A0461C46D8F8107098
:10401800D4F81090D8F80830D8F8041007EB09063F
:10402800B342B8BF0131FFF709FF00F114052B4671
:10403800002205EB860E734516D304F1140208F12D
:10404800140102EB890301EB87070093009B01929F
:1040580093420CD8002E03DD5EF8043D002B5DD0A2
:10406800066103B0BDE8F08F43F8042BE3E7B2F82C
:1040780000B0BBF1000F23D08946AC464FF00008D2
:1040880059F8044BDCF800A0A3B21FFA8AFA0BFB1C
:1040980003A34FEA144ADCF8004043444FEA1448AB
:1040A8000BFB0A84E24604EB13449BB243EA044345
:1040B8004F454FEA14484AF8043B2BD8CCF8048003
:1040C800019B0432B3F802A0BAF1000F20D0894650
:1040D800A8464FF0000B2B68B9F800C0B8F80240AA
:1040E8009BB20AFB0C44C4465C4443EA04434CF8C4
:1040F800043B59F8043BB8F804B01B0C0AFB03B3A3
:104108004F4503EB14434FEA134B05D8C8F8043066
:1041180004359BE7D446B3E7E046DDE7013E99E77F
:104128002DE9F843154612F0030206460F4607D05C
:10413800214C013A002354F82220FFF7CAFE074613
:10414800AD1035D0746A3CB9102001F031FB7062B3
:10415800C0E901440460C460D6F82480D8F8084057
:104168004CB940F271213046FFF73CFF002304466A
:10417800C8F8080003604FF00008EB070AD5394675
:1041880022463046FFF737FF814639463046FFF76B
:1041980089FE4F466D100BD0206838B9224621465B
:1041A8003046FFF728FF2060C0F800800446E4E7A7
:1041B8003846BDE8F88300BFF85C00082DE9F047F1
:1041C8000C460746164623694FEA621A0AEB0309AA
:1041D8004968A36809F10105AB4232DB3846FFF7AD
:1041E8002DFE002380461A4600F1140153452BDBAF
:1041F80020692AEAEA7A04F1140316F01F0201EB97
:104208008A0103EB800C25D00020C2F1200E8A46DB
:104218001E68964030434AF8040B53F8040B9C453B
:1042280020FA0EF014D8486008B109F10205013DE2
:104238003846C8F810502146FFF734FE4046BDE81E
:10424800F08701315B00C7E741F823200133CDE750
:104258005146DCE7043953F8042B9C4541F8042FF8
:10426800F9D8E4E703690A6930B59B1A0CD19200C2
:10427800143014318418114454F8045D51F8042D95
:10428800954203D005D30123184630BDA042F3D38D
:10429800FAE74FF0FF33F7E72DE9F0470D460746F9
:1042A800114628461446FFF7DDFF061E08D13146A1
:1042B8003846FFF7C3FD0123C0E90436BDE8F0879F
:1042C800A4BF23462C4638466168A6BF1D46002673
:1042D8000126FFF7B3FD4FF0000EC6602B69266973
:1042E80004F1140205F1140902EB860709EB8308AF
:1042F80000F1140152F804AB59F8045B1FFA8AF371
:104308007344ACB21B1B2C0CC4EB1A4404EB2344BF
:104318009BB24FEA244EC84543EA0444944641F808
:10432800044BE7D8BC4504D351F8043D83B106617A
:10433800C4E75CF8044BA2B27244131403EB1443B1
:1043480092B242EA03424FEA234E41F8042BE9E7CE
:10435800013EE9E72DE9F3411C46DDE90865012145
:104368009046FFF76BFDC4F31302C4F30A540746E3
:1043780034BB0192B8F1000227D002A840F8082DFA
:10438800FFF701FE0099F0B1019AC0F1200302FA8B
:1043980003F30B43C2407B610192019B002B14BFC6
:1043A80002210121BB613961C4B1A4F23344044440
:1043B8003460C0F135002860384602B0BDE8F081AD
:1043C80042F48012D5E77961E7E701A8FFF7DBFD42
:1043D8000121019B39617B612030E5E7A0F2324081
:1043E80007EB810330601869FFF7AEFDC0EB4110A1
:1043F800E1E700001728D0B5044605DC084B03EBBD
:10440800C004D4E90001D0BD002000260549064FAC
:1044180032463B46FEF736FD013CF9D1F3E700BFD3
:10442800305C00080000F03F0000244038B502FB73
:1044380001F4214600F008F8054618B1224600218B
:1044480001F0F0F9284638BD70B5CD1C25F00305FC
:1044580008350C2D38BF0C25002D064601DBA94276
:1044680003D90C233360002070BD01F0E3F9214A21
:104478001468214691B9204C23681BB9304600F0D6
:104488003BFB20602946304600F036FB431C24D114
:104498000C233046336001F0CEF9E4E70B685B1B70
:1044A80018D40B2B0FD90B60CC18CD50304601F027
:1044B800C2F904F10B00231D20F00700C31AD3D062
:1044C8005A42E250D0E74B688C4216BF63601360D3
:1044D8000C46EBE70C464968CCE7C41C24F00304FF
:1044E800A04205D0211A304600F006FB0130CFD09B
:1044F8002560DBE7B4010020B8010020F8B50746C5
:1045080014460E4621B9BDE8F8401146FFF79CBF96
:1045180022B901F091F925462846F8BD01F0D8F9ED
:10452800A0420FD221463846FFF78EFF05460028E5
:10453800F2D03146224601F051F93146384601F0B1
:104548007BF9E9E73546E7E72DE9F0478E688246CB
:104558009E420C469046994637D88A8912F4906F45
:1045680031D00223256809696F1A656905EB45058D
:1045780095FBF3F509F101033B449D4238BF1D4605
:10458800530530D52946FFF75FFF064650B90C237F
:104598004FF0FF30CAF80030A38943F04003A381ED
:1045A800BDE8F0873A46216901F018F9A38923F498
:1045B800906343F08003A38126613E4426604E4603
:1045C8006561ED1BA5604E4500D94E463246414611
:1045D800206801F00EF9A36800209B1BA3602368E4
:1045E8001E442660DCE72A46FFF788FF06460028B7
:1045F800E2D12169504601F01FF9C8E72DE9F04FD3
:104608009DB003938B8980461D060C4616460FD530
:104618000B696BB94021FFF717FF2060206128B9AB
:104628000C23C8F800304FF0FF30C7E04023636127
:104638000023099320238DF8293030234FF0010BF4
:104648008DF82A3037463D4615F8013B0BB1252B2E
:104658003ED1B7EB060A0BD05346324621464046B8
:10466800FFF772FF013000F0A480099B53440993BF
:104678003B78002B00F09D8000234FF0FF32CDE9FE
:104688000523049307938DF853301A932F46052278
:1046980017F8011B4F4801F093F8049BD0B9D906CD
:1046A80044BF20228DF853201A0744BF2B228DF8CF
:1046B80053202A782A2A15D02F4600200A25079A3F
:1046C800394611F8013B303B092B4DD9B8B10FE001
:1046D8002F46B8E73F4A3D46801A0BFA00F01843C8
:1046E8000490D3E7039A111D12680391002A01DB95
:1046F800079204E0524243F00203079204933B7886
:104708002E2B0CD17B782A2B33D1039B02371A1D11
:104718001B680392002BB8BF4FF0FF3305932E4D53
:1047280003223978284601F04BF838B14023401B62
:1047380003FA00F0049B01370343049339780622F7
:1047480026487E1C8DF8281001F03AF8002838D049
:10475800234B13BB039B073323F00703083303934F
:10476800099B4B4409936DE705FB023201200F4674
:10477800A6E700230A25194601370593384610F89D
:10478800012B303A092A03D9002BC8D00591C6E776
:1047980005FB012101230746F0E703AB00932246FE
:1047A800104B04A94046AFF30080B0F1FF3F8146AB
:1047B800D6D1A3895B063FF536AF09981DB0BDE891
:1047C800F08F03AB00932246064B04A9404600F045
:1047D80081F8EAE7045D00080A5D00080E5D00083C
:1047E80000000000514500082DE9F04791461F469A
:1047F8008A680B6906469342B8BF1346C9F8003069
:1048080091F843200C46DDF8208012B10133C9F835
:1048180000302368990642BFD9F800300233C9F83E
:104828000030256815F0060507D104F1190AE36878
:10483800D9F800209B1AAB4229DC94F8433022684F
:10484800003318BF012392062ED404F143023946DF
:104858003046C047013021D02368E56803F00603DD
:10486800042B18BF0025D9F800204FF0000908BF15
:10487800AD1AA368226908BF25EAE5759342C4BF4B
:104888009B1AED181A344D451AD1002008E001236F
:10489800524639463046C047013003D14FF0FF3009
:1048A800BDE8F0870135C2E73020E11881F8430000
:1048B8005A1C94F845102244023382F84310C4E786
:1048C8000123224639463046C0470130E6D009F177
:1048D8000109D8E72DE9F04301F1430C0C46097EA4
:1048E80085B06E291746064698460C9A00F0B380A4
:1048F80022D8632936D00AD8002900F0B98058296F
:1049080000F0838004F1420584F8421032E0642903
:1049180001D06929F6D120681368050603F104015E
:104928002AD51B681160002B03DA2D225B4284F81C
:1049380043206F480A2239E0732900F09D8008D887
:104948006F2920D07029DDD1236843F0200323602C
:1049580003E0752917D07829D4D17823654884F8DD
:10496800453055E0136804F14205191D1B681160B4
:1049780084F8423001238CE01B6810F0400F11606E
:1049880018BF1BB2CFE713682568181D10602806EA
:1049980001D51B6802E06806FBD51B886F2914BF88
:1049A8000A2208225248002184F843106568002D25
:1049B800A560C0F29580216821F004012160002BD8
:1049C8003DD1002D40F08E806546082A0BD1236822
:1049D800DB0708D5236962689A42DEBF302305F8F1
:1049E800013C05F1FF35ACEB05032361CDF80080F0
:1049F8003B4603AA21463046FFF7F6FE01304DD16B
:104A08004FF0FF3005B0BDE8F083394884F8451011
:104A1800136821681D1D1B6815600A060BD5CA0797
:104A280044BF41F0200121601BB9226822F0200216
:104A380022601022B7E74D0648BF9BB2EFE76546F4
:104A4800B3FBF2F102FB1133C35C05F8013D0B46E1
:104A58000029F5D1B9E713682568181D6169106048
:104A680028061B6801D5196002E06A06FBD5198083
:104A7800002365462361B9E71368191D11601D6895
:104A880062680021284600F09BFE08B1401B606068
:104A980063682361002384F84330A7E723692A4623
:104AA80039463046C0470130AAD023689B0713D443
:104AB800E068039B9842B8BF1846A3E701234A461B
:104AC80039463046C04701309AD00135E368039A29
:104AD8009B1AAB42F2DCEBE7002504F11909F5E774
:104AE800002BACD1037804F1420584F842306CE71E
:104AF800155D0008265D000838B50023054C0546FD
:104B080008462360FBF736FC431C02D1236803B137
:104B18002B6038BDBC010020034611F8012B03F8B7
:104B2800012B002AF9D170472DE9F74F03690C6969
:104B38008046A342C0F28480013C01F1140700F1D1
:104B4800140657F8245056F824000135B0FBF5F543
:104B58004FEA840C06EB0C0307EB0C0901939DB399
:104B68004FF0000A3846B646D34650F8042B93B2A5
:104B780005FB03A3120C4FEA134A05FB02A29BB2E2
:104B8800ABEB0303DEF800B04FEA124A1FFA8BFBC7
:104B98005B441FFA82FBDEF800208145CBEB124212
:104BA80002EB23429BB243EA02434FEA224B4EF800
:104BB800043BDAD256F80C3033B9019B043B9E42D1
:104BC8001A4631D3C8F810404046FFF74BFB00287F
:104BD80026DB30464FF0000C013557F8041BD0F89F
:104BE80000E08BB2ACEB03031FFA8EF213440A0CFD
:104BF800C2EB1E4202EB23429BB243EA0243B94591
:104C08004FEA224C40F8043BE7D256F8242006EB42
:104C180084032AB9043B9E421A460BD3C8F81040B5
:104C2800284603B0BDE8F08F1268043B002AC9D1BA
:104C3800013CC4E71268043B002AEFD1013CEAE7D3
:104C48000020EEE7000000002DE9F04F16461F4651
:104C5800456A95B00446DDF88480CDE902673DB920
:104C6800102000F0A5FD6062C0E901550560C5602F
:104C7800636A196851B15A68012393404A608B608E
:104C88002046FFF70FF90022636A1A603B1EAFBF88
:104C98000023012223F000430393ACBFC8F800307F
:104CA800C8F80020AE4BDDF80C8033EA08031BD1AE
:104CB80042F20F73209A1360029B23B9C8F31300C2
:104CC800002800F04585229B53B9A64B21E0A64B4E
:104CD80006930833229A1360069815B0BDE8F08F42
:104CE800A04B06930333F5E7DDE9026700220023B2
:104CF80030463946FEF72EFB824660B10123209AE2
:104D08001360229B002B00F02085984B229A136099
:104D1800013B0693E0E712AB019313AB00933246D5
:104D28003B462046FFF716FBC8F30A558346002D7D
:104D38007DD0B046C7F3130343F07F5949F44019B7
:104D4800A5F2FF35CDF840A00022894B40464946E0
:104D5800FDF7E0FE7CA3D3E90023FEF793F87CA3DC
:104D6800D3E90023FDF7D8FE064628460F46FEF78E
:104D78001FF879A3D3E90023FEF784F802460B460F
:104D880030463946FDF7C8FE06460F4600F0A8FD36
:104D980000228246002330463946FEF7E5FA48B13C
:104DA8005046FEF705F832463B46FEF7D3FA08B9F7
:104DB8000AF1FF3ABAF1160F5AD8DDE902236D4914
:104DC80001EBCA01D1E90001FEF7ECFA002851D045
:104DD80000230AF1FF3A0D93129B5D1B6B1E07938C
:104DE80043BF0023C5F1010907934FF00009BAF149
:104DF800000F41DB079BCDF830A0534407930023F5
:104E080008931E9B092B00F28F80052BC4BF043B1F
:104E18001E931E9BC8BF0025A3F10203D8BF01251E
:104E2800032B00F28D80DFE803F07B7D2F6FDDE937
:104E380012531D4405F23240202813DDC0F1400012
:104E4800029B08FA00F805F2124023FA00F048EA3B
:104E58000000FDF79DFF01238046A1F1F879013D8F
:104E6800109371E7029BC0F1200003FA00F0F0E70D
:104E78000123B0E70D90AFE7CAF1000308930023C0
:104E8800A9EB0A090C93BCE7012309931F9B002B8C
:104E980074DD984604930022666A7260042202F167
:104EA8001400984271686ED92046FEF7C7FF636AFE
:104EB80030601B68B8F10E0F069300F2ED80002DEC
:104EC80000F0EA80DDE90223BAF1000FCDE90E23F4
:104ED80077DD284A0AF00F034FEA2A1602EBC303CC
:104EE800F006D3E90023CDE90A2368D5DDE90E01F0
:104EF800214B0325D3E90823FEF7EEF8CDE902019B
:104F080006F00F061C4F4FE0012309931F9B5344E3
:104F180003F1010804934346012BB8BF0123BAE704
:104F28000023B2E70023F0E70125002309951E932B
:104F38004FF0FF3300220493984612231F92AAE7EA
:104F480001230993F4E700BF61436F63A787D23F4A
:104F5800B3C8608B288AC63FFB799F501344D33F60
:104F68000000F07F405D0008375D0008455D0008DF
:104F78000000F83F305C0008085C00080123049337
:104F880098461A46DAE701317160520087E7F1075F
:104F980008D5DDE90A01D7E90023FDF773FFCDE95C
:104FA8000A01013576100837002EF0D1DDE90A2311
:104FB800DDE90201FEF790F8CDE902011BE00225C8
:104FC800A0E700F0A480DDE90E01CAF10006A04BBD
:104FD80006F00F0203EBC203D3E90023FDF752FFEB
:104FE80002250023CDE902019A4F3611002E40F028
:104FF8008380002BE0D10D9B002B00F08A80DDE937
:105008000223CDE90A23DDE90A010022924BFEF7CB
:10501800ABF900287DD0B8F1000F7AD0049B002BA3
:1050280036DDDDE90A0100228C4BFDF72BFFCDE9C7
:105038000201049E0AF1FF3701352846FDF7B8FE44
:10504800DDE90223FDF71EFF0022854BFDF764FD15
:10505800A1F15075CDE90A010B95002E5CD1DDE96F
:10506800020100227F4BFDF755FD0A9A2B46CDE938
:105078000201FEF797F9002840F08182DDE902017C
:105088000A9A05F10043FEF76FF9002840F075828F
:10509800DDE90E23CDE90223139B002BC0F24B81DF
:1050A800BAF10E0F00F34781694B03EBCA03D3E94A
:1050B8000023CDE904231F9B002B80F2D780B8F191
:1050C800000F00F3D38040F05782DDE9040100228D
:1050D800644BFDF7D7FEDDE90223FEF759F9464692
:1050E8004746002840F02D82069B069A5D1C312316
:1050F8000AF1010A137028E2F20705D5D7E900235F
:10510800FDF7C0FE01230135761008376EE702254A
:1051180071E75746464690E74D4B03EBC60353E904
:105128000201099B002B48D002460B4600204E493D
:10513800FDF7D2FFDDE90A23FDF7ECFCCDE90A0112
:10514800069DDDE9020100F0CBFB1190FDF730FE72
:1051580002460B46DDE90201FDF7DCFC119BCDE9B7
:105168000201303305F8013BDDE90A23FEF7FCF8BC
:10517800002863D1DDE9022300203749FDF7CAFC86
:10518800DDE90A23FEF7F0F8002840F0B580069B19
:10519800EB1A9E427FF77CAFDDE90A0100222F4B14
:1051A800FDF770FE0022CDE90A01DDE902012B4B73
:1051B800FDF768FECDE90201C3E7DDE90A23FDF743
:1051C80061FE069BCDE90A019D191E46DDE9020133
:1051D80000F086FB1190FDF7EBFD02460B46DDE97A
:1051E8000201FDF797FC119BCDE90201303306F867
:1051F800013BAE424FF0000224D1DDE90A011A4B0F
:10520800FDF78AFC02460B46DDE90201FEF7CAF803
:10521800002871D1DDE90A2300201349FDF77AFC43
:1052280002460B46DDE90201FEF79EF800283FF42E
:105238002FAF15F8013C6A1E302B01D0BA464AE060
:105248001546F6E7054BFDF71DFECDE90201BDE762
:10525800305C0008085C00080000F03F00002440B3
:1052680000001C40000014400000E03F069DDDE9FE
:105278000267DDE9042330463946FDF72DFF00F0CB
:105288002FFB8146FDF794FDDDE90423FDF7FAFDC8
:1052980002460B4630463946FDF73CFC09F130061C
:1052A80005F8016B069E0246AE1BB0450B4635D18C
:1052B800FDF732FCDDE9042306460F46FEF772F8D7
:1052C800C8B9DDE9042330463946FEF743F810B182
:1052D80019F0010F0FD159462046FEF7E3FD0023D0
:1052E800209A2B700AF101031360229B002B3FF4D4
:1052F800F3AC1D60F0E4574615F8012C6B1E392AF3
:1053080006D1069A9A4207D1302313701346013703
:105318001A7801321A7091E71D46EDE70022994B81
:10532800FDF7B0FD0022002306460F46FEF712F8EF
:1053380000289ED0CFE7099A002A00F088801E9A9C
:10534800012A6DDC109A002A66D003F233434D46D9
:10535800089E079A01211A44204699440792FEF7AD
:1053680041FE0746002D0BDD079B002B08DDAB42F5
:10537800A8BF2B46079AA9EB0309ED1AD31A07937E
:10538800089BEBB1099B002B65D08EB1394632469C
:105398002046FEF7C5FE5A46014607462046FEF758
:1053A8002AFE59460A902046FEF77CFD0A9B9B463A
:1053B800089B9A1B04D059462046FEF7B1FE834647
:1053C80001212046FEF70EFE0C9B0646002B00F03E
:1053D800C6811A4601462046FEF7A2FE1E9B0646D7
:1053E800012B3EDC029B002B37D1039BC3F3130335
:1053F800002B34D1039B23F000431B0D1B052BB15D
:10540800079B09F1010901330793012308930C9BBA
:10541800002B28D101202EE0129BC3F1360396E71A
:10542800089B08F1FF36B342B7BF089B9E1BF21AD0
:105438000C9BBFBF08969B180C930026B8F1000F71
:10544800B9BFA9EB080500234D46434681E7089EEE
:105458004D46099F86E7089AADE70023D6E7029BE9
:10546800D4E700230893336906EB83031869FEF732
:105478006BFDC0F12000079B184410F01F0047D0B7
:10548800C0F12003042B3BDD079BC0F11C008144C5
:10549800054403440793B9F1000F05DD59464A4610
:1054A8002046FEF78BFE8346079B002B05DD314621
:1054B8001A462046FEF782FE06460D9B53B3314638
:1054C8005846FEF7CFFE002824DA002359460A2260
:1054D8002046FEF7FEFC099B0AF1FF3A8346002BA3
:1054E80000F04481002339460A222046FEF7F1FCE9
:1054F800049B0746002B4DDC1E9B022B4ADD11E066
:10550800C9D0079A1C331A4499441D441346C1E76D
:105518000346F6E7B8F1000F36DC1E9B022B33DD9D
:10552800CDF81080049B63B9314605222046FEF76A
:10553800D0FC014606465846FEF794FE00283FF781
:10554800D3AD1F9B069D6FEA030A4FF00009314651
:105558002046FEF7A7FC002F3FF4BDAEB9F1000FBF
:1055680005D0B94503D049462046FEF79BFC39468D
:105578002046FEF797FCAEE600263746E1E7BA4636
:105588003746B1E500002440099BCDF81080002B78
:1055980000F0F380002D05DD39462A462046FEF747
:1055A8000DFE0746089B002B4CD079682046FEF775
:1055B80045FC05463A6907F10C01023292000C30AD
:1055C80000F00CF9012229462046FEF7F7FDB946FE
:1055D8000746069B0793029B03F001030893314695
:1055E8005846FFF7A1FA4946054600F130085846E3
:1055F800FEF738FE3A46029031462046FEF74CFE4A
:10560800C368024603BB014609905846FEF72AFEC6
:105618000346099A114620460993FEF743FC099B65
:10562800A3B91E9A92B9089A82B9B8F1390F29D04C
:10563800029B002B01DD05F13108079B5D1C83F8F7
:10564800008084E73846C2E70123E3E7029A002A8C
:1056580004DB23D11E9A0ABB089AFAB9002BECDDA9
:10566800594601222046FEF7A9FD31468346FEF73A
:10567800F9FD002803DCE0D118F0010FDDD0B8F106
:10568800390FD8D1079B079A5D1C3923137015F879
:10569800013C6A1E392B4DD0013352E0079A002B8A
:1056A80002F1010506DDB8F1390FEBD008F1010868
:1056B800079BC4E7069B049AEB1A934205F8018CF2
:1056C80021D0594600230A222046FEF702FCB9459C
:1056D80083464FF000034FF00A024946204605D1A1
:1056E800FEF7F7FB81460746079578E7FEF7F1FBDB
:1056F8003946814600230A222046FEF7EAFB074680
:10570800F2E74FF00009594601222046FEF756FD00
:1057180031468346FEF7A6FD0028B8DC02D118F012
:10572800010FB4D115F8013C6A1E302B7FF40FAF7E
:105738001546F7E7069B934205D13123069A0AF1ED
:10574800010A137003E71546A1E7174BFFF7E1BA03
:10575800229B002B7FF4BBAA144BFFF7DABA1E9BDF
:10576800012B7FF73FAE0C9B089353E6049B002B5D
:1057780003DC1E9B022B3FF7D5AE069D31465846EB
:10578800FFF7D2F9069B00F1300805F8018B049A5F
:10579800EB1A9A42B5DD594600230A222046FEF745
:1057A80098FB8346EAE700BF445D0008375D0008C0
:1057B800024B01461868FEF747BE00BF980000205C
:1057C80010B5C9B202449042034601D1002303E058
:1057D8001C7801308C42F6D1184610BD10B5431E16
:1057E8000A44914200D110BD11F8014B03F8014F52
:1057F800F7E7884210B501EB020307D8421E994229
:105808000AD011F8014B02F8014FF8E78342F5D9A5
:105818008118D21AD34200D110BD13F8014D01F8F6
:10582800014DF7E703460244934200D1704703F85D
:10583800011BF9E77047704738B50546002943D082
:1058480051F8043C0C1F002BB8BFE418FFF7F2FF17
:105858001E4A1368104633B9636014602846BDE8D1
:105868003840FFF7E8BFA3420BD92168621893427A
:1058780001BF1A685B685218226063600460EDE734
:1058880013465A680AB1A242FAD919685818A042B0
:105898000BD120680144581882421960DED1106883
:1058A8005268014419605A60D8E702D90C232B606A
:1058B800D4E7206821188A4201BF11685268091884
:1058C800216062605C60C9E738BD00BFB401002098
:1058D80051F8043C181F002BBCBF0B58C018704768
:1058E8004FEA410212F5001215D211D56FF4787300
:1058F800B3EB625212D94FEAC12343F0004343EAA3
:10590800505311F0004F23FA02F018BF404270477D
:105918004FF00000704750EA013005D111F0004007
:1059280008BF6FF0004070474FF00000704700BF9D
:10593800537461636B206672616D653A0A000000FA
:10594800205230203D2020253038580A0000000021
:10595800205231203D2020253038580A0000000010
:10596800205232203D2020253038580A00000000FF
:10597800205233203D2020253038580A00000000EE
:1059880020523132203D20253038580A00000000CE
:10599800204C52203D2020253038580A00000000B5
:1059A800205043203D2020253038580A00000000B0
:1059B80020505352203D20253038580A000000005E
:1059C8004653522F4641523A0A000000204346539C
:1059D80052203D2020253038580A000020484653E0
:1059E80052203D2020253038580A000020444653D4
:1059F80052203D2020253038580A000020414653C7
:105A080052203D2020253038580A0000204D4D46B0
:105A18004152203D20253038580A00002042464196
:105A280052203D2020253038580A00004D69736304
:105A38000A000000204C522F4558435F52455455E8
:105A4800524E3D20253038580A0000005B486172EC
:105A5800644661756C745D0A000000005B427573F2
:105A68004661756C745D0A005B55736167654661D4
:105A7800756C745D0A00000043656C6C2D31204F15
:105A880076657268656174696E67000046616E20AC
:105A980053706565643D000063656C6C2D31206949
:105AA8006E2064616E6765720000000043000000AC
:105AB8003A000000543D000020563D00420000001E
:105AC8005F493A0020533A003000000046616E20DA
