:020000040800F2
:100000000050002021020008270200082B020008EF
:100010009D020008A1020008E9020008000000009B
:100020000000000000000000000000003103000894
:10003000350300080000000039030008951500088A
:100040004D0300084D0300084D0300084D03000850
:100050004D0300084D0300084D0300084D03000840
:100060004D0300084D0300084D0300084D03000830
:100070004D0300084D0300084D0300084D03000820
:100080004D0300084D0300084D0300084D03000810
:100090004D0300084D0300084D0300084D03000800
:1000A0004D0300084D0300084D0300084D030008F0
:1000B0004D0300084D0300084D0300084D030008E0
:1000C0004D0300084D0300084D0300084D030008D0
:1000D0004D0300084D0300084D0300084D030008C0
:1000E0004D0300084D0300084D0300080000000008
:1000F0000000000000000000000000000000000000
:1001000000000000000000005FF808F100B583B0B7
:1001100000F0AAF9304B314A1360314A1360314B79
:10012000314A32498B4204D21168196004330432D7
:10013000F7E72A4B1A682E4B9A4200D0FEE7284B6D
:100140001A682C4B9A42F9D1234B2B4A13602B4A45
:1001500013602B4B02E000221A600433294A9342B9
:10016000F9D3254B1B6813B9244B1B6803B1FEE779
:1001700000F086F9694601A800F022F9224C234BD1
:10018000E41AA4100025AC4214DC214C214BE41AE3
:10019000A4100025AC4213DC0099019801F05CFA30
:1001A00005461D4C1D4BE41AA410002C0EDC2846FD
:1001B00000F0E2F8154B53F8253098470135E2E797
:1001C000144B53F8253098470135E3E7013C134BB6
:1001D00053F824309847E8E7BABADECA0000002096
:1001E000FC00002000000020BC2F000800010020BF
:1001F000785634123254769800010020C401002051
:1002000000010020C80100207803000878030008DE
:1002100078030008780300087803000878030008D2
:1002200008B5FFF773FF00BEFEE71EF0040F0CBF1A
:10023000EFF30880EFF309807146414A10472DE93A
:10024000F04182B004468846124B5E6B9F6B9D6AFC
:100250001B6B13F0020F03D00E4BDB6A002B0CDB81
:100260000D4800F0B5F8CDF800803B4632462946EF
:10027000204600F009F900BEFEE74BF6AB6100F046
:100280007DF90028ECD0034B4FF00042DA6202B057
:10029000BDE8F08100ED00E00C2F000800BEFEE795
:1002A0001EF0040F0CBFEFF30880EFF309807146D6
:1002B000244A10472DE9F04182B004468846084B95
:1002C0005E6B9F6B9D6A074800F082F8CDF8008056
:1002D0003B4632462946204600F0D6F800BEFEE7EF
:1002E00000ED00E01C2F00081EF0040F0CBFEFF320
:1002F0000880EFF309807146134A10472DE9F04159
:1003000082B004468846084B5E6B9F6B9D6A074827
:1003100000F05EF8CDF800803B4632462946204684
:1003200000F0B2F800BEFEE700ED00E0282F000864
:1003300000BEFEE700BEFEE700BEFEE7704700001D
:100340003F020008B5020008FD02000800BEFEE7FB
:10035000BC2F00080000002000010020BC2F000876
:10036000000000000000000000010020C801002083
:08037000000000000000000085
:10037800FEE7000008B503460C4A12685AB10B4A5A
:100388001068033323F003030344094A934206D851
:10039800064A136008BD054A06491160EFE702F0F6
:1003A8009BF80C2303604FF0FF30F3E704010020B3
:1003B800004C0020C801002001230360014B0B60A2
:1003C800704700BF040000200FB400B583B004AB31
:1003D80053F8042B01938021064802F007F90028FE
:1003E80003DD0146034800F037F803B05DF804EB7D
:1003F80004B070470C0100202DE9F04385B0044695
:100408000F4643560BB10E461EE0042528462146EA
:10041800ABBE0446384605B0BDE8F08314F9011BAD
:1004280004AA1A4402F8101C0133AB42F6D304AAFA
:100438001344002203F8102C4FF00408E946404604
:100448004946ABBE8046761B002EE3D03546102EBB
:1004580028BF10250023E8E708B5FFF7CDFF08BD42
:1004680008B500F0FDF8024A024B9A6008BD00BFCB
:100478000000000800ED00E008B500F019F908BD1B
:10048800F8B504460D4617461E462748FFF79CFF59
:1004980021682648FFF798FF61682548FFF794FF11
:1004A800A1682448FFF790FFE1682348FFF78CFF15
:1004B80021692248FFF788FF61692148FFF784FF17
:1004C800A1692048FFF780FFE1691F48FFF77CFF1B
:1004D8001E48FFF779FF29461D48FFF775FF1D4C99
:1004E800E16A1D48FFF770FF216B1C48FFF76CFF9E
:1004F800E16B1B48FFF768FF15F0800F0AD115F470
:10050800004F0CD11748FFF75FFF06991648FFF711
:100518005BFFF8BD39461548FFF756FFEFE7314650
:100528001348FFF751FFEDE7F02D0008002E0008F3
:10053800102E0008202E0008302E0008402E00083B
:10054800502E0008602E0008702E0008802E00082B
:100558008C2E000800ED00E09C2E0008AC2E000850
:10056800BC2E0008EC2E0008F42E0008CC2E000843
:10057800DC2E000883691A888A4201D0002070475F
:100588000268033A012A03D80233836101207047C5
:100598000020704782B00023019300932C4A13680F
:1005A80043F4803313602A4B1B6803F40033009331
:1005B800019B01330193009B1BB9019BB3F5A06F0D
:1005C800F1D1234B1B6813F4003F06D0012300939D
:1005D800009B012B04D002B0704700230093F7E77B
:1005E8001C4B1A6842F010021A601A6822F00302C3
:1005F8001A601A6842F002021A60A3F580535A681A
:100608005A605A685A605A6842F480625A605A6856
:1006180022F47C125A605A6842F4E8125A601A6846
:1006280042F080721A600A4B1B6813F0007FFAD000
:10063800074B5A6822F003025A605A6842F00202D5
:100648005A60034B5B6803F00C03082BF9D1C2E72F
:10065800001002400020024008B5FFF79BFF08BDCC
:1006680008B5104B1A6842F001021A6059680E4A20
:100678000A405A601A6822F0847222F480321A60A2
:100688001A6822F480221A605A6822F4FE025A601C
:100698004FF41F029A60FFF7DFFF044B4FF0006230
:1006A8009A6008BD001002400000FFF800ED00E06D
:1006B8001F4B5B6803F00C03042B15D0082B17D0D5
:1006C8001BB11C4B1C4A1A6002E01A4B1A4A1A60EA
:1006D800174B5B68C3F30313184AD35CDAB21549A6
:1006E8000B68D3400B607047124B134A1A60EFE750
:1006F8000F4A53685268C3F38343023312F4803FAE
:100708000AD00B4A526812F4003F0BD00C4A02FB85
:1007180003F3084A1360DBE7094A02FB03F3054ABF
:100728001360D5E7044A02FB03F3024A1360CFE7DC
:10073800001002401C00002000127A000C0000206B
:1007480000093D00134B002119601A6822F48072D9
:100758001A60043319601A6822F400621A601A6871
:1007680042F002021A600C4A1160116811601C32D2
:10077800116811600832116811601A6842F00102AC
:100788001A601A6842F008021A601A6842F00402F5
:100798001A6070470424014010240140024A13687B
:1007A80043F001031360704708240140014B1868A7
:1007B800704700BF4C24014008B500F013FF08BD86
:1007C8002DE9F04188B00024ADF80A40ADF80840A2
:1007D800ADF80640ADF80440ADF80240A8E0574D2A
:1007E800A6003219930005EB0308EF5CBBB2ADF825
:1007F8000A30D8F8040001F04FFE80B2ADF80800C6
:100808004F49D8F80C0001F081FC01F045FE80B298
:10081800ADF806004B49D8F8080001F077FC01F064
:100828003BFE80B2ADF80400D8F8100001F034FEA9
:1008380080B2ADF8020023238DF80C3043238DF8E5
:100848000D3030378DF80E7054238DF80F30BDF809
:10085800082092B23C4BA3FB0212D20830328DF82A
:100868001020BDF8082092B2A3FB0201C90801EBD1
:1008780081014800121A30328DF8112041228DF87A
:100888001220BDF8062092B2A3FB0212D208303221
:100898008DF81320BDF8062092B2A3FB0201C90807
:1008A80001EB81014800121A30328DF814205622CB
:1008B8008DF81520BDF8042092B2A3FB0212D208CD
:1008C80030328DF81620BDF8042092B2A3FB020145
:1008D800C90801EB81014800121A30328DF817203F
:1008E80053228DF81820BDF8022092B2A3FB021201
:1008F800D20830328DF81920BDF8022092B2A3FB3D
:100908000213DB0803EB83035900521A30328DF8C7
:100918001A2024238DF81B3000238DF81C3003A8DF
:1009280000F074FE4FF4FA7000F08AFE0134E4B26D
:10093800052C7FF654AF08B0BDE8F08120000020F8
:100948000000C84200002041CDCCCCCCF8B500F066
:10095800BBF8374B1C682146364B186801F088FDF8
:1009680068B1344B5968204601F078FD60B1314BCD
:100978009968204601F072FD40B9002200E000228B
:100988002D4B1A70002410E00022F9E70122F7E746
:100998002A49384601F076FDF0B1294B00221A5554
:1009A800284B01221A550134E4B2022C39D82646C4
:1009B800204B53F824502449284601F09DFA074655
:1009C800224901F041FD0028E2D01D4B01221A55B1
:1009D8001C4B00221A55E6E71B49284601F08EFAFF
:1009E800134B1F68394601F02FFD28B10123144A23
:1009F8001355144A1355D6E73946284601F038FDF1
:100A080048B10D4B1B7833B90D4B00221A550D4BCD
:100A180001221A55C7E70123094A9355094A9355F4
:100A2800C1E7054B00221A7000F026F8F8BD00BF98
:100A38008C010020900100209C0100200000B4429D
:100A4800B8010020B40100200000A0400000A0412F
:100A580008B5002306E000220549CA540549CA54CE
:100A68000133DBB2022BF6D900F01EFD08BD00BF32
:100A7800B8010020B401002000B583B0002307E0CE
:100A88000E4AD15C02AA1A4402F8081C0133DBB2F0
:100A9800022BF5D9002308E0DA1C0949C95C02A831
:100AA800024402F8081C0133DBB2022BF4D9684671
:100AB80000F00DFD03B05DF804FB00BFB801002095
:100AC800B401002000000000F8B5002401E0013462
:100AD800E4B2052C41D8A30023449A00284D1544BC
:100AE800A86800F04BFF06460F46E86800F046FF8E
:100AF8001DA3D3E9002300F099FF02460B463046B8
:100B0800394600F0DDFD1AA3D3E9002300F08EFF7B
:100B180019A3D3E9002300F0D1FD01F099F90646A5
:100B28002861184D0146286801F0E8F9286014F09A
:100B3800010FCCD0631E03EB83039A00104B1344C0
:100B48003146186901F0DAF965084FF07C5101F077
:100B5800DDFA0D4B43F82500B9E70A4C0B4920682C
:100B680001F088FB2060F8BDCDCCCCCCCCCCF03FDC
:100B78009A99999999896040CDCCCCCCCC2C7C4061
:100B8800200000208C010020900100200000C040BF
:100B980010B4012824D018B1022841D010BC7047E5
:100BA800072910D90F29F9D8A1F10804E4B2A40043
:100BB8000F23A3402A48016821EA030302FA04F13B
:100BC80019430160EAE789000F2303FA01F0254C75
:100BD800236823EA000302FA01F119432160DDE7E3
:100BE800072910D90F29D9D8A1F10800C0B280006F
:100BF8000F2383401C4C216821EA030302FA00F109
:100C080019432160CAE789000F2303FA01F0174C42
:100C1800236823EA000302FA01F119432160BDE7C2
:100C2800072910D90F29B9D8A1F10803DBB29B0015
:100C38000F2098400E4C216821EA000002FA03F1C7
:100C480001432160AAE789000F2303FA01F0094C48
:100C5800236823EA000302FA01F1194321609DE7A2
:100C68000408014000080140040C0140000C014048
:100C78000410014000100140012818D010B10228CA
:100C880029D07047012A0AD0002A2FD1012303FA5C
:100C980001F11B4A136823EA01031360704701231B
:100CA80003FA01F1164A13680B4313607047012ACF
:100CB80009D0DAB9012303FA01F1124A136823EAC9
:100CC800010313607047012303FA01F10D4A136809
:100CD8000B4313607047012A09D03AB9012303FA7C
:100CE80001F1094A136823EA0103136070470123DD
:100CF80003FA01F1044A13680B431360704700BFFD
:100D08000C0801400C0C01400C10014000000000D0
:100D180008B5FFF74BFD00F00FFE07A3D3E900234A
:100D280000F084FE06A3D3E9002300F07FFE01F063
:100D38008FF808BDAFF300807B14AE47E17AB43F6B
:100D48001F85EB51B81EE53F08B5FFF72FFD00F0F2
:100D5800F3FD0BA3D3E9002300F068FE0AA3D3E94F
:100D6800002300F08DFF0AA3D3E9002300F088FFD9
:100D780009A3D3E9002300F059FE01F069F808BD82
:100D88006666666666660A400000000000FEAF40C0
:100D980000000000004CBD4000000000804FE24011
:100DA80008B5FFF703FDA0F6E53000280EDB01F0DB
:100DB80059F9094901F0AAF900F0E0FD04A3D3E9C3
:100DC800002300F05DFF01F043F808BD4042EEE764
:100DD800AE47E17A14AEC73F6740533A08B5FFF70C
:100DE800B1FCFFF7DBFC00F0B3F908BD2DE9F041D9
:100DF80000241FE0671CFFB2244DA600321993009F
:100E080005EB0308EF54204600F0B8F9642000F021
:100E180013FCFFF77DFFC8F8040004F10900C0B215
:100E280000F0ACF9642000F007FCFFF78DFFC8F86C
:100E380008003C46052CDDD90026354622E0B01DC9
:100E4800C0B200F09BF9642000F0F6FBFFF7A8FFA2
:100E580001F022FB01F002F980460C4F05EB8502F8
:100E680093003B44D8606C1CE4B2642000F0E4FBBF
:100E780004EB8404A3001F44C7F80C800235EDB2CC
:100E88000136F6B2022EDAD9BDE8F0812000002042
:100E980008B500F0A7F808BDF8B500243AE02548E1
:100EA80000F01AF9244DA60032199300EF18E85CF7
:100EB80000F03DF9214800F00FF9214800F00CF945
:100EC800786801F0E9FA00F032F91E4800F004F9F8
:100ED800B86801F0E1FA00F02AF91B4800F0FCF8C4
:100EE800F86801F0D9FA00F022F9184A0021012027
:100EF80000F015F9386901F0CFFA00F018F925204B
:100F080000F0A2F84FF47A7000F09AFB00F01BF999
:100F18000134E4B2052CC2D90D4B186801F0BCFAB3
:100F280000F005F94FF47A7000F08AFB00F00BF935
:100F3800F8BD00BF382F000820000020402F00080F
:100F4800442F0008482F00084C2F0008502F000895
:100F58008C01002038B5044600220A211046FFF70C
:100F68008BFE002209211046FFF786FE012000F0C3
:100F780067FB012208210020FFF77EFE012000F018
:100F88005FFB174D2B6823F0F00304F0F0021343C6
:100F98002B60012000F054FB002208211046FFF7C7
:100FA8006BFE012000F04CFB012208210020FFF716
:100FB80063FE012000F044FB2B6823F0F0032401BA
:100FC800E4B21C432C60012000F03AFB0022082107
:100FD8001046FFF751FE012000F032FB38BD00BF7C
:100FE8000C08014008B5022208210020FFF7D0FDB7
:100FF80002220A210020FFF7CBFD0222092100204E
:10100800FFF7C6FD022204210020FFF7C1FD0222DE
:1010180005210020FFF7BCFD022206210020FFF772
:10102800B7FD022207210020FFF7B2FD0220FFF7DB
:1010380091FF2820FFF78EFF0C20FFF78BFF012080
:10104800FFF788FF08BD000038B5044601220A21D1
:101058000020FFF711FE002209211046FFF70CFEC1
:10106800012000F0EDFA012208210020FFF704FE1C
:10107800012000F0E5FA174D2B6823F0F00304F087
:10108800F00213432B60012000F0DAFA0022082155
:101098001046FFF7F1FD012000F0D2FA01220821E5
:1010A8000020FFF7E9FD012000F0CAFA2B6823F0C1
:1010B800F0032401E4B21C432C60012000F0C0FAC4
:1010C800002208211046FFF7D7FD012000F0B8FAEA
:1010D80038BD00BF0C08014038B50546002404E0BF
:1010E800C0B2FFF7B1FF0134E4B228570028F7D1A6
:1010F80038BD08B5032803D8DFE800F003080B0E55
:10110800002141F08000FFF725FF08BD4031C9B23A
:10111800F7E71031C9B2F4E75031C9B2F1E710B5B9
:101128001446FFF7E6FF2046FFF7D6FF10BD00B5CF
:1011380085B00A22694601F0EDF96846FFF7CCFF51
:1011480005B05DF804FB08B50120FFF703FF08BDF3
:1011580008B5022200210120FFF71AFD0222012111
:101168000846FFF715FD022211460120FFF710FD82
:10117800022203210120FFF70BFD08BD08B50F2847
:1011880025D8DFE810F0100025003A004F00640071
:1011980079008E00A300B800CD00E200F7000C0132
:1011A800210136014B01002211460120FFF764FDA1
:1011B800002201210846FFF75FFD002202210120DD
:1011C800FFF75AFD002203210120FFF755FD08BD56
:1011D800012200211046FFF74FFD00220121084699
:1011E800FFF74AFD002202210120FFF745FD0022FA
:1011F80003210120FFF740FDE9E700221146012005
:10120800FFF73AFD012211461046FFF735FD00228F
:1012180002210120FFF730FD002203210120FFF702
:101228002BFDD4E7012200211046FFF725FD0122FE
:1012380011461046FFF720FD002202210120FFF78A
:101248001BFD002203210120FFF716FDBFE7002246
:1012580011460120FFF710FD002201210846FFF783
:101268000BFD012202211046FFF706FD0022032193
:101278000120FFF701FDAAE7012200211046FFF730
:10128800FBFC002201210846FFF7F6FC012202219F
:101298001046FFF7F1FC002203210120FFF7ECFCC8
:1012A80095E7002211460120FFF7E6FC01221146CE
:1012B8001046FFF7E1FC012202211046FFF7DCFC93
:1012C800002203210120FFF7D7FC80E7012200213B
:1012D8001046FFF7D1FC012211461046FFF7CCFC5F
:1012E800012202211046FFF7C7FC0022032101203A
:1012F800FFF7C2FC6BE7002211460120FFF7BCFC98
:10130800002201210846FFF7B7FC00220221012034
:10131800FFF7B2FC012203211046FFF7ADFC56E7A8
:10132800012200211046FFF7A7FC002201210846F0
:10133800FFF7A2FC002202210120FFF79DFC0122F9
:1013480003211046FFF798FC41E7002211460120CF
:10135800FFF792FC012211461046FFF78DFC002290
:1013680002210120FFF788FC012203211046FFF724
:1013780083FC2CE7012200211046FFF77DFC0122A7
:1013880011461046FFF778FC002202210120FFF7E2
:1013980073FC012203211046FFF76EFC17E70022B9
:1013A80011460120FFF768FC002201210846FFF7DB
:1013B80063FC012202211046FFF75EFC0122032193
:1013C8001046FFF759FC02E7012200211046FFF7FB
:1013D80053FC002201210846FFF74EFC012202219E
:1013E8001046FFF749FC012203211046FFF744FC91
:1013F800EDE6002211460120FFF73EFC01221146CE
:101408001046FFF739FC012202211046FFF734FC91
:10141800012203211046FFF72FFCD8E60122002104
:101428001046FFF729FC012211461046FFF724FC5D
:10143800012202211046FFF71FFC0122032110465A
:10144800FFF71AFCC3E60000034B81221A6004333D
:1014580000221A60704700BF001002401F291CD8E4
:1014680001280BD010B1022810D07047012303FACD
:1014780001F10A4A13680B4313607047012303FA0A
:1014880001F1074A13680B4313607047012303FAFD
:1014980001F1044A13680B431360704714100240AB
:1014A8001C1002401810024008B500F04DF8022246
:1014B80000210846FFF76CFB022201210020FFF7FC
:1014C80067FB022211460020FFF762FB08BD38B512
:1014D8000546002211461046FFF7CEFB00220121E7
:1014E8001046FFF7C9FB002202211046FFF7C4FB94
:1014F800052419E02A5D00210846FFF7BDFB0A20F4
:1015080000F09AF8012202210020FFF7B5FB0A201B
:1015180000F092F8002202211046FFF7ADFB0A20E6
:1015280000F08AF8013C64B2002CE3DA012211468B
:101538000020FFF7A1FB0A2000F07EF8002201211D
:101548001046FFF799FB38BD014B00221A6070471F
:1015580010E000E00B4B18600B4A136843F00103DE
:101568001360094B1B6813F4803FFAD0064A1368CE
:1015780023F0010313600023043213600432136064
:10158800704700BF14E000E010E000E000B583B051
:1015980000238DF807300F4B1B786BB90E4B1A6878
:1015A80022F002021A601A6842F001021A6000234F
:1015B8000A4A136004321360094B1B6803B1984749
:1015C800054B1B68C3F300438DF8073003B05DF883
:1015D80004FB00BFA401002010E000E014E000E0DC
:1015E800A0010020084B40F241329A60DA6842F0CC
:1015F8000402DA60DA6842F00802DA60DA6842F473
:101608000052DA60704700BF00440040002208E042
:10161800064B1B6813F0800FFAD0044B5960013257
:10162800D2B2815C0029F3D1704700BF004400406A
:1016380008B5FFF789FF08BD08B5FFF78BFF08BDA0
:1016480008B54FF47A7303FB00F0FFF783FF08BD7A
:1016580008B5FFF7F9FE02210846FFF7FFFE032150
:101668000220FFF7FBFE04210220FFF7F7FE092105
:101678000220FFF7F3FE00210220FFF7EFFE112101
:101688000120FFF7EBFEFFF7D3FFFFF7A7FBFFF7FC
:10169800DFF9FFF791F8FFF7FBFBFFF7A7FBFFF771
:1016A80055F9FFF78DF8FFF7F7FB42F21070FFF7D7
:1016B800C7FFF2E781F0004102E000BF83F000437A
:1016C80030B54FEA41044FEA430594EA050F08BFD5
:1016D80090EA020F1FBF54EA000C55EA020C7FEA99
:1016E800645C7FEA655C00F0E2804FEA5454D4EB16
:1016F8005555B8BF6D420CDD2C4480EA020281EAE0
:10170800030382EA000083EA010180EA020281EA17
:101718000303362D88BF30BD11F0004F4FEA013169
:101728004FF4801C4CEA113102D0404261EB410178
:1017380013F0004F4FEA03334CEA133302D05242FE
:1017480063EB430394EA050F00F0A780A4F10104BA
:10175800D5F1200E0DDB02FA0EFC22FA05F28018F4
:1017680041F1000103FA0EF2801843FA05F35941DA
:101778000EE0A5F120050EF1200E012A03FA0EFC59
:1017880028BF4CF0020C43FA05F3C01851EBE37183
:1017980001F0004507D54FF0000EDCF1000C7EEBA0
:1017A80000006EEB0101B1F5801F1BD3B1F5001FDE
:1017B8000CD349085FEA30004FEA3C0C04F10104FD
:1017C8004FEA445212F5800F80F09A80BCF1004F26
:1017D80008BF5FEA500C50F1000041EB045141EAA8
:1017E800050130BD5FEA4C0C404141EB010111F4A9
:1017F800801FA4F10104E9D191F0000F04BF014654
:101808000020B1FA81F308BF2033A3F10B03B3F131
:1018180020020CDA0C3208DD02F1140CC2F10C02C1
:1018280001FA0CF021FA02F10CE002F11402D8BF1F
:10183800C2F1200C01FA02F120FA0CFCDCBF41EAEB
:101848000C019040E41AA2BF01EB0451294330BDBA
:101858006FEA04041F3C1CDA0C340EDC04F1140497
:10186800C4F1200220FA04F001FA02F340EA03006E
:1018780021FA04F345EA030130BDC4F10C04C4F1B4
:10188800200220FA02F001FA04F340EA0300294694
:1018980030BD21FA04F0294630BD94F0000F83F4DE
:1018A800801306BF81F480110134013D4EE77FEAC1
:1018B800645C18BF7FEA655C29D094EA050F08BF0D
:1018C80090EA020F05D054EA000C04BF19461046EE
:1018D80030BD91EA030F1EBF0021002030BD5FEA32
:1018E800545C05D14000494128BF41F0004130BD5A
:1018F80014F580043CBF01F5801130BD01F00045AE
:1019080045F0FE4141F470014FF0000030BD7FEA20
:10191800645C1ABF194610467FEA655C1CBF0B461B
:10192800024650EA013406BF52EA033591EA030F32
:1019380041F4002130BD00BF90F0000F04BF00212A
:10194800704730B54FF4806404F132044FF000055D
:101958004FF0000150E700BF90F0000F04BF0021D6
:10196800704730B54FF4806404F1320410F000453C
:1019780048BF40424FF000013EE700BF42004FEA37
:10198800E2014FEA31014FEA02701FBF12F07F43B4
:1019980093F07F4F81F06051704732F07F4208BF6B
:1019A800704793F07F4F04BF41F40021704730B572
:1019B8004FF4607401F0004521F000411CE700BFBE
:1019C80050EA010208BF704730B54FF000050AE041
:1019D80050EA010208BF704730B511F0004502D542
:1019E800404261EB41014FF4806404F132045FEA44
:1019F800915C3FF4D8AE4FF003025FEADC0C18BFED
:101A080003325FEADC0C18BF033202EBDC02C2F1DE
:101A1800200300FA03FC20FA02F001FA03FE40EA70
:101A28000E0021FA02F11444BDE600BF70B54FF074
:101A3800FF0C4CF4E06C1CEA11541DBF1CEA135552
:101A480094EA0C0F95EA0C0F00F0DEF82C4481EABA
:101A5800030621EA4C5123EA4C5350EA013518BFDA
:101A680052EA033541F4801143F4801338D0A0FBC7
:101A780002CE4FF00005E1FB02E506F00042E0FB74
:101A880003E54FF00006E1FB03569CF0000F18BF7A
:101A98004EF0010EA4F1FF04B6F5007F64F5407422
:101AA80004D25FEA4E0E6D4146EB060642EAC621B5
:101AB80041EA55514FEAC52040EA5E504FEACE2E22
:101AC800B4F1FD0C88BFBCF5E06F1ED8BEF1004F25
:101AD80008BF5FEA500E50F1000041EB045170BDA1
:101AE80006F0004646EA010140EA020081EA0301E5
:101AF800B4EB5C04C2BFD4EB0C0541EA045170BDE1
:101B080041F480114FF0000E013C00F3AB8014F15A
:101B1800360FDEBF002001F0004170BDC4F10004A3
:101B2800203C35DA0C341BDC04F11404C4F1200524
:101B380000FA05F320FA04F001FA05F240EA02007F
:101B480001F0004221F0004110EBD37021FA04F6B5
:101B580042EB06015EEA430E08BF20EAD37070BD6F
:101B6800C4F10C04C4F1200500FA04F320FA05F0CE
:101B780001FA04F240EA020001F0004110EBD370D0
:101B880041F100015EEA430E08BF20EAD37070BD40
:101B9800C4F1200500FA05F24EEA020E20FA04F319
:101BA80001FA05F243EA020321FA04F001F00041C8
:101BB80021FA04F220EA020000EBD3705EEA430E39
:101BC80008BF20EAD37070BD94F0000F0FD101F068
:101BD8000046400041EB010111F4801F08BF013CA1
:101BE800F7D041EA060195F0000F18BF704703F0DF
:101BF8000046520043EB030313F4801F08BF013D66
:101C0800F7D043EA0603704794EA0C0F0CEA135521
:101C180018BF95EA0C0F0CD050EA410618BF52EADB
:101C28004306D1D181EA030101F000414FF00000E1
:101C380070BD50EA410606BF1046194652EA4306EF
:101C480019D094EA0C0F02D150EA013613D195EA63
:101C58000C0F05D152EA03361CBF104619460AD1AB
:101C680081EA030101F0004141F0FE4141F47001B5
:101C78004FF0000070BD41F0FE4141F4780170BDA5
:101C880070B54FF0FF0C4CF4E06C1CEA11541DBF0A
:101C98001CEA135594EA0C0F95EA0C0F00F0A7F80C
:101CA800A4EB050481EA030E52EA03354FEA013139
:101CB80000F088804FEA03334FF0805545EA13134C
:101CC80043EA12634FEA022245EA111545EA106514
:101CD8004FEA00260EF000419D4208BF964244F1AB
:101CE800FD0404F5407402D25B084FEA3202B61ACA
:101CF80065EB03055B084FEA32024FF480104FF49E
:101D0800002CB6EB020E75EB030E22BFB61A754611
:101D180040EA0C005B084FEA3202B6EB020E75EBA4
:101D2800030E22BFB61A754640EA5C005B084FEA0C
:101D38003202B6EB020E75EB030E22BFB61A7546D9
:101D480040EA9C005B084FEA3202B6EB020E75EBE4
:101D5800030E22BFB61A754640EADC0055EA060EA5
:101D680018D04FEA051545EA16754FEA06164FEAE8
:101D7800C30343EA52734FEAC2025FEA1C1CC0D194
:101D880011F4801F0BD141EA00014FF000004FF021
:101D9800004CB6E711F4801F04BF01430020B4F1E2
:101DA800FD0C88BFBCF5E06F3FF6AFAEB5EB030C9A
:101DB80004BFB6EB020C5FEA500C50F1000041EB97
:101DC800045170BD0EF0004E4EEA113114EB5C0464
:101DD800C2BFD4EB0C0541EA045170BD41F4801137
:101DE8004FF0000E013C90E645EA060E8DE60CEA3F
:101DF800135594EA0C0F08BF95EA0C0F3FF43BAF5C
:101E080094EA0C0F0AD150EA01347FF434AF95EA12
:101E18000C0F7FF425AF104619462CE795EA0C0FF6
:101E280006D152EA03353FF4FDAE1046194622E7C3
:101E380050EA410618BF52EA43067FF4C5AE50EA9D
:101E480041047FF40DAF52EA43057FF4EBAE12E78D
:101E58004FEA4102B2F1E04324BFB3F5001CDCF1C4
:101E6800FE5C0DD901F0004C4FEAC0024CEA5070FC
:101E7800B2F1004F40EB830008BF20F0010070472B
:101E880011F0804F21D113F13872BCBF01F000402E
:101E9800704741F480114FEA5252C2F11802C2F160
:101EA800200C10FA0CF320FA02F018BF40F00100E1
:101EB8004FEAC1234FEAD32303FA0CFC40EA0C0093
:101EC80023FA02F34FEA4303CCE77FEA625307D1D0
:101ED80050EA01331EBF4FF0FE4040F44000704707
:101EE80001F0004040F0FE4040F40000704700BFA1
:101EF80080F0004002E000BF81F0004142001FBFB7
:101F08005FEA410392EA030F7FEA226C7FEA236CBF
:101F18006AD04FEA1262D2EB1363C1BFD2184140B4
:101F280048404140B8BF5B42192B88BF704710F04A
:101F3800004F40F4000020F07F4018BF404211F0ED
:101F4800004F41F4000121F07F4118BF494292EA55
:101F5800030F3FD0A2F1010241FA03FC10EB0C0081
:101F6800C3F1200301FA03F100F0004302D549420E
:101F780060EB4000B0F5000F13D3B0F1807F06D3BB
:101F880040084FEA310102F10102FE2A51D2B1F1B3
:101F9800004F40EBC25008BF20F0010040EA0300A8
:101FA8007047490040EB000010F4000FA2F1010255
:101FB800EDD1B0FA80FCACF1080CB2EB0C0200FADF
:101FC8000CF0AABF00EBC25052421843BCBFD0402D
:101FD8001843704792F0000F81F4000106BF80F4A7
:101FE80000000132013BB5E74FEA41037FEA226C6A
:101FF80018BF7FEA236C21D092EA030F04D092F035
:10200800000F08BF0846704790EA010F1CBF002068
:10201800704712F07F4F04D1400028BF40F00040C5
:10202800704712F100723CBF00F50000704700F0E5
:10203800004343F0FE4040F4000070477FEA22620C
:1020480016BF08467FEA23630146420206BF5FEADD
:10205800412390EA010F40F4800070474FF00003DD
:1020680004E000BF10F0004348BF40425FEA000CA4
:1020780008BF704743F0964301464FF000001CE04C
:1020880050EA010208BF70474FF000030AE000BFA2
:1020980050EA010208BF704711F0004302D54042E0
:1020A80061EB41015FEA010C02BF84460146002052
:1020B80043F0B64308BFA3F18053A3F50003BCFA6D
:1020C8008CF2083AA3EBC25310DB01FA02FC63441A
:1020D80000FA02FCC2F12002BCF1004F20FA02F221
:1020E80043EB020008BF20F00100704702F1200214
:1020F80001FA02FCC2F1200250EA4C0021FA02F275
:1021080043EB020008BF20EADC7070474FF0FF0C79
:102118001CEAD0521EBF1CEAD15392EA0C0F93EA74
:102128000C0F6FD01A4480EA010C400218BF5FEA16
:1021380041211ED04FF0006343EA501043EA511189
:10214800A0FB01310CF00040B1F5000F3EBF490083
:1021580041EAD3715B0040EA010062F17F02FD2A87
:102168001DD8B3F1004F40EBC25008BF20F001006A
:10217800704790F0000F0CF0004C08BF49024CEA81
:10218800502040EA51207F3AC2BFD2F1FF0340EA13
:10219800C250704740F400004FF00003013A5DDC84
:1021A80012F1190FDCBF00F000407047C2F10002C5
:1021B800410021FA02F1C2F1200200FA02FC5FEAB2
:1021C800310040F1000053EA4C0308BF20EADC70FC
:1021D800704792F0000F00F0004C02BF400010F46E
:1021E800000F013AF9D040EA0C0093F0000F01F01B
:1021F800004C02BF490011F4000F013BF9D041EA3D
:102208000C018FE70CEAD15392EA0C0F18BF93EA3E
:102218000C0F0AD030F0004C18BF31F0004CD8D168
:1022280080EA010000F00040704790F0000F17BFEF
:1022380090F0004F084691F0000F91F0004F14D035
:1022480092EA0C0F01D142020FD193EA0C0F03D18D
:102258004B0218BF084608D180EA010000F0004090
:1022680040F0FE4040F40000704740F0FE4040F46B
:10227800400070474FF0FF0C1CEAD0521EBF1CEA0A
:10228800D15392EA0C0F93EA0C0F69D0A2EB030228
:1022980080EA010C49024FEA402037D04FF08053C2
:1022A80043EA111143EA10130CF000408B4238BF87
:1022B8005B0042F17D024FF4000C8B4224BF5B1A95
:1022C80040EA0C00B3EB510F24BFA3EB510340EAE3
:1022D8005C00B3EB910F24BFA3EB910340EA9C0091
:1022E800B3EBD10F24BFA3EBD10340EADC001B0101
:1022F80018BF5FEA1C1CE0D1FD2A3FF650AF8B42A5
:1023080040EBC25008BF20F0010070470CF0004CB1
:102318004CEA50207F32C2BFD2F1FF0340EAC250DC
:10232800704740F400004FF00003013A37E792F09D
:10233800000F00F0004C02BF400010F4000F013AFB
:10234800F9D040EA0C0093F0000F01F0004C02BFF6
:10235800490011F4000F013BF9D041EA0C0195E75F
:102368000CEAD15392EA0C0F08D142027FF47DAFF8
:1023780093EA0C0F7FF470AF084676E793EA0C0FE8
:1023880004D14B023FF44CAF08466EE730F0004CE6
:1023980018BF31F0004CCAD130F000427FF45CAF76
:1023A80031F000437FF43CAF5FE700BF4FF0FF3CE4
:1023B80006E000BF4FF0010C02E000BF4FF0010C37
:1023C8004DF804CD4FEA40024FEA41037FEA226C00
:1023D80018BF7FEA236C11D001B052EA530C18BF22
:1023E80090EA010F58BFB2EB030088BFC81738BF87
:1023F8006FEAE17018BF40F0010070477FEA226C75
:1024080002D15FEA402C05D17FEA236CE4D15FEA70
:10241800412CE1D05DF8040B704700BF84460846A4
:102428006146FFE70FB5FFF7C9FF002848BF10F165
:10243800000F0FBD4DF808EDFFF7F4FF0CBF0120AA
:1024480000205DF808FB00BF4DF808EDFFF7EAFF34
:1024580034BF012000205DF808FB00BF4DF808EDEF
:10246800FFF7E0FF94BF012000205DF808FB00BFE4
:102478004DF808EDFFF7D2FF94BF012000205DF86A
:1024880008FB00BF4DF808EDFFF7C8FF34BF012077
:1024980000205DF808FB00BF42000ED2B2F1FE4FEB
:1024A8000BD34FF09E03B3EB126209D44FEA00231B
:1024B80043F0004323FA02F070474FF000007047E2
:1024C80012F1610F01D1420202D14FF0FF30704783
:1024D8004FF00000704700BF014B1868704700BFFD
:1024E80098000020931E222B10B50C4604D9002317
:1024F8001C460B70204610BD0A2A09D1002807DAAD
:102508002D230B7001214042214400F005F8F1E72A
:102518000021F9E7FFF7E6BFF0B58BB005460C469A
:102528006E461B4B03F1200C374618685968083370
:1025380003C763453E46F7D118681B7938603B717D
:10254800931E222B4FF0000304D923701C4620460B
:102558000BB0F0BD661EB5FBF2F002FB10550AAFDA
:102568003D4415F8285C591C06F8015F054668B912
:10257800224660542344191B101B8142E7DD117861
:10258800187802F8010B03F80119F4E70B46E2E7A3
:10259800642F000830B5141E05469BB0184605DAAE
:1025A8008B234FF0FF302B601BB030BD4FF402730C
:1025B800ADF80C300CBF234604F1FF3302930593AA
:1025C8004FF6FF7300910491ADF80E3002461E9B42
:1025D8006946284600F0F2F8431CBCBF8B232B60E9
:1025E800002CE1D00022009B1A70DDE707B50093AC
:1025F80013460A46014603480068FFF7CBFF03B0BD
:102608005DF804FB9800002070B5CD1C25F003058B
:1026180008350C2D38BF0C25002D064601DBA942D4
:1026280003D90C233360002070BD00F087FB214ADA
:102638001468214691B9204C23681BB9304600F034
:102648003BFB20602946304600F036FB431C24D172
:102658000C233046336000F072FBE4E70B685B1B29
:1026680018D40B2B0FD90B60CC18CD50304600F086
:1026780066FB04F10B00231D20F00700C31AD3D01A
:102688005A42E250D0E74B688C4216BF6360136031
:102698000C46EBE70C464968CCE7C41C24F003045D
:1026A800A04205D0211A304600F006FB0130CFD0F9
:1026B8002560DBE7A8010020AC010020F8B507463B
:1026C80014460E4621B9BDE8F8401146FFF79CBFF5
:1026D80022B900F035FB25462846F8BD00F07CFB02
:1026E800A0420FD221463846FFF78EFF0546002844
:1026F800F2D03146224600F0FDFA3146384600F065
:102708001FFBE9E73546E7E72DE9F0478E68824683
:102718009E420C469046994637D88A8912F4906FA3
:1027280031D00223256809696F1A656905EB4505EB
:1027380095FBF3F509F101033B449D4238BF1D4663
:10274800530530D52946FFF75FFF064650B90C23DD
:102758004FF0FF30CAF80030A38943F04003A3814B
:10276800BDE8F0873A46216900F0C4FAA38923F44A
:10277800906343F08003A38126613E4426604E4661
:102788006561ED1BA5604E4500D94E46324641466F
:10279800206800F0BAFAA36800209B1BA360236896
:1027A8001E442660DCE72A46FFF788FF0646002815
:1027B800E2D12169504600F0C3FAC8E72DE9F04F8D
:1027C8009DB003938B8980461D060C4616460FD58F
:1027D8000B696BB94021FFF717FF2060206128B90A
:1027E8000C23C8F800304FF0FF30C7E04023636186
:1027F8000023099320238DF8293030234FF0010B53
:102808008DF82A3037463D4615F8013B0BB1252B8C
:102818003ED1B7EB060A0BD0534632462146404616
:10282800FFF772FF013000F0A480099B534409931D
:102838003B78002B00F09D8000234FF0FF32CDE95C
:102848000523049307938DF853301A932F460522D6
:1028580017F8011B4F4800F03FFA049BD0B9D9067E
:1028680044BF20228DF853201A0744BF2B228DF82D
:1028780053202A782A2A15D02F4600200A25079A9D
:10288800394611F8013B303B092B4DD9B8B10FE05F
:102898002F46B8E73F4A3D46801A0BFA00F0184326
:1028A8000490D3E7039A111D12680391002A01DBF3
:1028B800079204E0524243F00203079204933B78E4
:1028C8002E2B0CD17B782A2B33D1039B02371A1D70
:1028D8001B680392002BB8BF4FF0FF3305932E4DB2
:1028E80003223978284600F0F7F938B14023401B15
:1028F80003FA00F0049B0137034304933978062256
:1029080026487E1C8DF8281000F0E6F9002838D0FB
:10291800234B13BB039B073323F0070308330393AD
:10292800099B4B4409936DE705FB023201200F46D2
:10293800A6E700230A25194601370593384610F8FB
:10294800012B303A092A03D9002BC8D00591C6E7D4
:1029580005FB012101230746F0E703AB009322465C
:10296800104B04A94046AFF30080B0F1FF3F814609
:10297800D6D1A3895B063FF536AF09981DB0BDE8EF
:10298800F08F03AB00932246064B04A9404600F0A3
:1029980081F8EAE7892F00088F2F0008932F000895
:1029A80000000000112700082DE9F04791461F4656
:1029B8008A680B6906469342B8BF1346C9F80030C7
:1029C80091F843200C46DDF8208012B10133C9F894
:1029D80000302368990642BFD9F800300233C9F89D
:1029E8000030256815F0060507D104F1190AE368D7
:1029F800D9F800209B1AAB4229DC94F843302268AE
:102A0800003318BF012392062ED404F1430239463D
:102A18003046C047013021D02368E56803F006033B
:102A2800042B18BF0025D9F800204FF0000908BF73
:102A3800AD1AA368226908BF25EAE5759342C4BFA9
:102A48009B1AED181A344D451AD1002008E00123CD
:102A5800524639463046C047013003D14FF0FF3067
:102A6800BDE8F0870135C2E73020E11881F843005E
:102A78005A1C94F845102244023382F84310C4E7E4
:102A88000123224639463046C0470130E6D009F1D5
:102A98000109D8E72DE9F04301F1430C0C46097E02
:102AA80085B06E291746064698460C9A00F0B38002
:102AB80022D8632936D00AD8002900F0B9805829CD
:102AC80000F0838004F1420584F8421032E0642962
:102AD80001D06929F6D120681368050603F10401BD
:102AE8002AD51B681160002B03DA2D225B4284F87B
:102AF80043206F480A2239E0732900F09D8008D8E6
:102B08006F2920D07029DDD1236843F0200323608A
:102B180003E0752917D07829D4D17823654884F83B
:102B2800453055E0136804F14205191D1B68116012
:102B380084F8423001238CE01B6810F0400F1160CC
:102B480018BF1BB2CFE713682568181D1060280648
:102B580001D51B6802E06806FBD51B886F2914BFE6
:102B68000A2208225248002184F843106568002D83
:102B7800A560C0F29580216821F004012160002B36
:102B88003DD1002D40F08E806546082A0BD1236880
:102B9800DB0708D5236962689A42DEBF302305F84F
:102BA800013C05F1FF35ACEB05032361CDF800804E
:102BB8003B4603AA21463046FFF7F6FE01304DD1C9
:102BC8004FF0FF3005B0BDE8F083394884F8451070
:102BD800136821681D1D1B6815600A060BD5CA07F6
:102BE80044BF41F0200121601BB9226822F0200275
:102BF80022601022B7E74D0648BF9BB2EFE7654653
:102C0800B3FBF2F102FB1133C35C05F8013D0B463F
:102C18000029F5D1B9E713682568181D61691060A6
:102C280028061B6801D5196002E06A06FBD51980E1
:102C3800002365462361B9E71368191D11601D68F3
:102C480062680021284600F047F808B1401B606020
:102C580063682361002384F84330A7E723692A4681
:102C680039463046C0470130AAD023689B0713D4A1
:102C7800E068039B9842B8BF1846A3E701234A4679
:102C880039463046C04701309AD00135E368039A87
:102C98009B1AAB42F2DCEBE7002504F11909F5E7D2
:102CA800002BACD1037804F1420584F842306CE77C
:102CB8009A2F0008AB2F000838B50023054C0546AD
:102CC80008462360FDF756FB431C02D1236803B175
:102CD8002B6038BDB001002010B5C9B20244904243
:102CE800034601D1002303E01C7801308C42F6D161
:102CF800184610BD10B5431E0A44914200D110BDBC
:102D080011F8014B03F8014FF7E7884210B501EBC2
:102D1800020307D8421E99420AD011F8014B02F863
:102D2800014FF8E78342F5D98118D21AD34200D16E
:102D380010BD13F8014D01F8014DF7E770477047D2
:102D480038B50546002943D051F8043C0C1F002B28
:102D5800B8BFE418FFF7F2FF1E4A1368104633B9EC
:102D6800636014602846BDE83840FFF7E8BFA34217
:102D78000BD921686218934201BF1A685B68521820
:102D8800226063600460EDE713465A680AB1A24204
:102D9800FAD919685818A0420BD12068014458186C
:102DA80082421960DED110685268014419605A6085
:102DB800D8E702D90C232B60D4E7206821188A426F
:102DC80001BF116852680918216062605C60C9E738
:102DD80038BD00BFA801002051F8043C181F002B83
:102DE800BCBF0B58C0187047537461636B20667280
:102DF800616D653A0A000000205230203D202025F0
:102E08003038580A00000000205231203D2020258B
:102E18003038580A00000000205232203D2020257A
:102E28003038580A00000000205233203D20202569
:102E38003038580A0000000020523132203D202549
:102E48003038580A00000000204C52203D20202530
:102E58003038580A00000000205043203D2020252B
:102E68003038580A0000000020505352203D2025D9
:102E78003038580A000000004653522F4641523A53
:102E88000A0000002043465352203D2020253038B8
:102E9800580A00002048465352203D20202530384B
:102EA800580A00002044465352203D20202530383F
:102EB800580A00002041465352203D202025303832
:102EC800580A0000204D4D464152203D20253038FB
:102ED800580A00002042464152203D202025303823
:102EE800580A00004D6973630A000000204C522FF5
:102EF8004558435F52455455524E3D202530385869
:102F08000A0000005B486172644661756C745D0A72
:102F1800000000005B4275734661756C745D0A00C1
:102F28005B55736167654661756C745D0A000000E6
:102F380043656C6C5F0000003A00000020543D00BF
:102F480020563D0020433D007374617465206F6610
:102F5800206368617267653A0000000030313233DF
:102F68003435363738396162636465666768696A1B
:102F78006B6C6D6E6F707172737475767778797A21
:102F880000232D302B2000686C4C00656667454691
:102F980047003031323334353637383941424344CB
:102FA800454600303132333435363738396162635B
:042FB80064656600E6
:102FBC0078563412080100200000000000000000C8
:102FCC0000000000010203040607080900A24A04DD
:102FDC0001000000000000000000000000000000E4
:102FEC0000000000020000000000000000000000D3
:102FFC0000000000000000000300000000000000C2
:10300C0000000000000000000000000004000000B0
:10301C0000000000000000000000000000000000A4
:10302C00050000000000000000000000000000008F
:10303C00000000000600000000000000000000007E
:10304C0000000000000000009C00002000000000B8
:10305C000000000000000000000000000000000064
:10306C000000000000000000000000000000000054
:10307C000000000000000000000000000000000044
:10308C000000000000000000000000000000000034
:10309C000000000000000000000000000000000024
:1030AC000000000000000000000000003254769880
:040000050800010DE1
:00000001FF
